{
  "contractName": "Core",
  "abi": [
    {
      "inputs": [],
      "stateMutability": "payable",
      "type": "constructor",
      "payable": true
    },
    {
      "inputs": [
        {
          "internalType": "string",
          "name": "usrName",
          "type": "string"
        },
        {
          "internalType": "string",
          "name": "nombre",
          "type": "string"
        },
        {
          "internalType": "uint256",
          "name": "fechaNac",
          "type": "uint256"
        }
      ],
      "name": "addNuevoUsuario",
      "outputs": [],
      "stateMutability": "payable",
      "type": "function",
      "payable": true
    },
    {
      "inputs": [
        {
          "internalType": "string",
          "name": "nombre",
          "type": "string"
        }
      ],
      "name": "addNuevaEntidad",
      "outputs": [],
      "stateMutability": "payable",
      "type": "function",
      "payable": true
    },
    {
      "inputs": [],
      "name": "getDatosUsuario",
      "outputs": [
        {
          "internalType": "string",
          "name": "usrName",
          "type": "string"
        },
        {
          "internalType": "string",
          "name": "nameCompleto",
          "type": "string"
        },
        {
          "internalType": "uint256",
          "name": "fechaNac",
          "type": "uint256"
        }
      ],
      "stateMutability": "view",
      "type": "function",
      "constant": true
    },
    {
      "inputs": [],
      "name": "cargarSaldoGlobal",
      "outputs": [],
      "stateMutability": "payable",
      "type": "function",
      "payable": true
    },
    {
      "inputs": [],
      "name": "getEntidades",
      "outputs": [
        {
          "internalType": "string[]",
          "name": "entidades",
          "type": "string[]"
        }
      ],
      "stateMutability": "view",
      "type": "function",
      "constant": true
    },
    {
      "inputs": [],
      "name": "getMetricasSistema",
      "outputs": [
        {
          "internalType": "uint256",
          "name": "totalUsuarios",
          "type": "uint256"
        },
        {
          "internalType": "uint256",
          "name": "totalEntidades",
          "type": "uint256"
        },
        {
          "internalType": "uint256",
          "name": "_totalRes",
          "type": "uint256"
        }
      ],
      "stateMutability": "view",
      "type": "function",
      "constant": true
    },
    {
      "inputs": [],
      "name": "isRegistered",
      "outputs": [
        {
          "internalType": "bool",
          "name": "registered",
          "type": "bool"
        },
        {
          "internalType": "string",
          "name": "tipo",
          "type": "string"
        }
      ],
      "stateMutability": "view",
      "type": "function",
      "constant": true
    },
    {
      "inputs": [
        {
          "internalType": "address",
          "name": "sender",
          "type": "address"
        }
      ],
      "name": "getUserNameByAddress",
      "outputs": [
        {
          "internalType": "string",
          "name": "usrName",
          "type": "string"
        }
      ],
      "stateMutability": "view",
      "type": "function",
      "constant": true
    },
    {
      "inputs": [],
      "name": "getContratoEntAddress",
      "outputs": [
        {
          "internalType": "address",
          "name": "dirContrato",
          "type": "address"
        },
        {
          "internalType": "string",
          "name": "_marca",
          "type": "string"
        }
      ],
      "stateMutability": "view",
      "type": "function",
      "constant": true
    },
    {
      "inputs": [
        {
          "internalType": "string",
          "name": "nombre",
          "type": "string"
        }
      ],
      "name": "getContratoEnt",
      "outputs": [
        {
          "internalType": "address",
          "name": "dirContrato",
          "type": "address"
        }
      ],
      "stateMutability": "view",
      "type": "function",
      "constant": true
    },
    {
      "inputs": [
        {
          "internalType": "address",
          "name": "wallet",
          "type": "address"
        }
      ],
      "name": "esEntidadContr",
      "outputs": [
        {
          "internalType": "bool",
          "name": "_esEntidadContr",
          "type": "bool"
        }
      ],
      "stateMutability": "view",
      "type": "function",
      "constant": true
    },
    {
      "inputs": [],
      "name": "incRes",
      "outputs": [],
      "stateMutability": "nonpayable",
      "type": "function"
    },
    {
      "inputs": [],
      "name": "getContractBalance",
      "outputs": [
        {
          "internalType": "uint256",
          "name": "balance",
          "type": "uint256"
        }
      ],
      "stateMutability": "view",
      "type": "function",
      "constant": true
    }
  ],
  "bytecode": "0x6101006040526129cc60809081525066b1a2bc2ec5000060a090815250662386f26fc1000060c090815250631dcd650060e09081525060a0513410156200007d576040517f08c379a0000000000000000000000000000000000000000000000000000000008152600401620000749062000171565b60405180910390fd5b33600560006101000a81548173ffffffffffffffffffffffffffffffffffffffff021916908373ffffffffffffffffffffffffffffffffffffffff16021790555062000193565b600082825260208201905092915050565b7f41706f72746163696f6e206e6f20737566696369656e74652e204c612061706f60008201527f72746163696f6e20696e696369616c206d696e696d6120657320646520302c3060208201527f3520455448000000000000000000000000000000000000000000000000000000604082015250565b600062000159604583620000c4565b91506200016682620000d5565b606082019050919050565b600060208201905081810360008301526200018c816200014a565b9050919050565b60805160a05160c05160e0516141ba620001ca6000396000610b4d015260006109c3015260005050600061057501526141ba6000f3fe608060405260043610620000d45760003560e01c806358678947116200008b578063a8ce79b21162000061578063a8ce79b21462000271578063e7dd1ce6146200028b578063e80222c514620002cf578063e93c216f146200030157620000d4565b80635867894714620001cb578063595babb5146200020f5780636f9fb98a146200024157620000d4565b806302cd163e14620000d957806310fe472b14620000f957806322366844146200013d5780633ab08371146200016e5780633b4ee4ee146200017a57806341c518f0146200019a575b600080fd5b620000f76004803603810190620000f1919062001493565b62000331565b005b3480156200010657600080fd5b506200012560048036038101906200011f919062001592565b6200060f565b6040516200013491906200164d565b60405180910390f35b3480156200014a57600080fd5b5062000155620006e7565b604051620001659291906200168e565b60405180910390f35b620001786200082c565b005b620001986004803603810190620001929190620016c2565b620008c1565b005b348015620001a757600080fd5b50620001b262000bc8565b604051620001c292919062001724565b60405180910390f35b348015620001d857600080fd5b50620001f76004803603810190620001f19190620016c2565b62000caf565b60405162000206919062001758565b60405180910390f35b3480156200021c57600080fd5b506200022762000cf9565b604051620002389392919062001786565b60405180910390f35b3480156200024e57600080fd5b506200025962000da8565b604051620002689190620017c3565b60405180910390f35b3480156200027e57600080fd5b506200028962000e43565b005b3480156200029857600080fd5b50620002b76004803603810190620002b1919062001592565b62000e5f565b604051620002c69190620017e0565b60405180910390f35b348015620002dc57600080fd5b50620002e762000f15565b604051620002f893929190620017fd565b60405180910390f35b3480156200030e57600080fd5b5062000319620010c0565b6040516200032891906200196a565b60405180910390f35b60005a90506200034133620011a3565b1562000384576040517f08c379a00000000000000000000000000000000000000000000000000000000081526004016200037b9062001a04565b60405180910390fd5b6000600260003373ffffffffffffffffffffffffffffffffffffffff1673ffffffffffffffffffffffffffffffffffffffff16815260200190815260200160002060020154146200040c576040517f08c379a0000000000000000000000000000000000000000000000000000000008152600401620004039062001a9c565b60405180910390fd5b836000803373ffffffffffffffffffffffffffffffffffffffff1673ffffffffffffffffffffffffffffffffffffffff168152602001908152602001600020908162000459919062001cf4565b5083600260003373ffffffffffffffffffffffffffffffffffffffff1673ffffffffffffffffffffffffffffffffffffffff1681526020019081526020016000206000019081620004ab919062001cf4565b5082600260003373ffffffffffffffffffffffffffffffffffffffff1673ffffffffffffffffffffffffffffffffffffffff1681526020019081526020016000206001019081620004fd919062001cf4565b5081600260003373ffffffffffffffffffffffffffffffffffffffff1673ffffffffffffffffffffffffffffffffffffffff16815260200190815260200160002060020181905550600660008154809291906200055a9062001e0a565b919050555060005a826200056f919062001e57565b905060007f00000000000000000000000000000000000000000000000000000000000000003a61520884620005a5919062001e92565b620005b1919062001ecd565b620005bd919062001e92565b90503373ffffffffffffffffffffffffffffffffffffffff166108fc829081150290604051600060405180830381858888f1935050505015801562000606573d6000803e3d6000fd5b50505050505050565b60606000808373ffffffffffffffffffffffffffffffffffffffff1673ffffffffffffffffffffffffffffffffffffffff16815260200190815260200160002080546200065c9062001aed565b80601f01602080910402602001604051908101604052809291908181526020018280546200068a9062001aed565b8015620006db5780601f10620006af57610100808354040283529160200191620006db565b820191906000526020600020905b815481529060010190602001808311620006bd57829003601f168201915b50505050509050919050565b6000606060019150620006fa33620011a3565b156200073e576040518060400160405280600781526020017f7573756172696f00000000000000000000000000000000000000000000000000815250905062000828565b62000749336200123b565b156200078d576040518060400160405280600781526020017f656e746964616400000000000000000000000000000000000000000000000000815250905062000827565b600560009054906101000a900473ffffffffffffffffffffffffffffffffffffffff1673ffffffffffffffffffffffffffffffffffffffff163373ffffffffffffffffffffffffffffffffffffffff160362000821576040518060400160405280600581526020017f61646d696e000000000000000000000000000000000000000000000000000000815250905062000826565b600091505b5b5b9091565b600560009054906101000a900473ffffffffffffffffffffffffffffffffffffffff1673ffffffffffffffffffffffffffffffffffffffff163373ffffffffffffffffffffffffffffffffffffffff1614620008bf576040517f08c379a0000000000000000000000000000000000000000000000000000000008152600401620008b69062001f8e565b60405180910390fd5b565b620008cc336200123b565b156200090f576040517f08c379a0000000000000000000000000000000000000000000000000000000008152600401620009069062002026565b60405180910390fd5b600073ffffffffffffffffffffffffffffffffffffffff166003826040516200093991906200208a565b908152602001604051809103902060009054906101000a900473ffffffffffffffffffffffffffffffffffffffff1673ffffffffffffffffffffffffffffffffffffffff1614620009c1576040517f08c379a0000000000000000000000000000000000000000000000000000000008152600401620009b89062002119565b60405180910390fd5b7f000000000000000000000000000000000000000000000000000000000000000034101562000a27576040517f08c379a000000000000000000000000000000000000000000000000000000000815260040162000a1e90620021b1565b60405180910390fd5b80600160003373ffffffffffffffffffffffffffffffffffffffff1673ffffffffffffffffffffffffffffffffffffffff168152602001908152602001600020908162000a75919062001cf4565b5060008160405162000a8790620012d4565b62000a9391906200164d565b604051809103906000f08015801562000ab0573d6000803e3d6000fd5b5090508060038360405162000ac691906200208a565b908152602001604051809103902060006101000a81548173ffffffffffffffffffffffffffffffffffffffff021916908373ffffffffffffffffffffffffffffffffffffffff16021790555060048290806001815401808255809150506001900390600052602060002001600090919091909150908162000b48919062001cf4565b5060007f00000000000000000000000000000000000000000000000000000000000000003462000b79919062001e57565b90508173ffffffffffffffffffffffffffffffffffffffff166108fc829081150290604051600060405180830381858888f1935050505015801562000bc2573d6000803e3d6000fd5b50505050565b60006060600160003373ffffffffffffffffffffffffffffffffffffffff1673ffffffffffffffffffffffffffffffffffffffff168152602001908152602001600020805462000c189062001aed565b80601f016020809104026020016040519081016040528092919081815260200182805462000c469062001aed565b801562000c975780601f1062000c6b5761010080835404028352916020019162000c97565b820191906000526020600020905b81548152906001019060200180831162000c7957829003601f168201915b5050505050905062000ca98162000caf565b91509091565b600060038260405162000cc391906200208a565b908152602001604051809103902060009054906101000a900473ffffffffffffffffffffffffffffffffffffffff169050919050565b6000806000600560009054906101000a900473ffffffffffffffffffffffffffffffffffffffff1673ffffffffffffffffffffffffffffffffffffffff163373ffffffffffffffffffffffffffffffffffffffff161462000d91576040517f08c379a000000000000000000000000000000000000000000000000000000000815260040162000d889062001f8e565b60405180910390fd5b600654925060048054905091506007549050909192565b6000600560009054906101000a900473ffffffffffffffffffffffffffffffffffffffff1673ffffffffffffffffffffffffffffffffffffffff163373ffffffffffffffffffffffffffffffffffffffff161462000e3d576040517f08c379a000000000000000000000000000000000000000000000000000000000815260040162000e349062001f8e565b60405180910390fd5b47905090565b6007600081548092919062000e589062001e0a565b9190505550565b60003373ffffffffffffffffffffffffffffffffffffffff166003600160008573ffffffffffffffffffffffffffffffffffffffff1673ffffffffffffffffffffffffffffffffffffffff16815260200190815260200160002060405162000ec8919062002262565b908152602001604051809103902060009054906101000a900473ffffffffffffffffffffffffffffffffffffffff1673ffffffffffffffffffffffffffffffffffffffff16149050919050565b606080600080600260003373ffffffffffffffffffffffffffffffffffffffff1673ffffffffffffffffffffffffffffffffffffffff16815260200190815260200160002060405180606001604052908160008201805462000f779062001aed565b80601f016020809104026020016040519081016040528092919081815260200182805462000fa59062001aed565b801562000ff65780601f1062000fca5761010080835404028352916020019162000ff6565b820191906000526020600020905b81548152906001019060200180831162000fd857829003601f168201915b50505050508152602001600182018054620010119062001aed565b80601f01602080910402602001604051908101604052809291908181526020018280546200103f9062001aed565b8015620010905780601f10620010645761010080835404028352916020019162001090565b820191906000526020600020905b8154815290600101906020018083116200107257829003601f168201915b50505050508152602001600282015481525050905080600001519350806020015192508060400151915050909192565b60606004805480602002602001604051908101604052809291908181526020016000905b828210156200119a578382906000526020600020018054620011069062001aed565b80601f0160208091040260200160405190810160405280929190818152602001828054620011349062001aed565b8015620011855780601f10620011595761010080835404028352916020019162001185565b820191906000526020600020905b8154815290600101906020018083116200116757829003601f168201915b505050505081526020019060010190620010e4565b50505050905090565b6000604051602001620011b690620022a5565b604051602081830303815290604052805190602001206000808473ffffffffffffffffffffffffffffffffffffffff1673ffffffffffffffffffffffffffffffffffffffff1681526020019081526020016000206040516020016200121c919062002262565b6040516020818303038152906040528051906020012014159050919050565b60006040516020016200124e90620022a5565b60405160208183030381529060405280519060200120600160008473ffffffffffffffffffffffffffffffffffffffff1673ffffffffffffffffffffffffffffffffffffffff168152602001908152602001600020604051602001620012b5919062002262565b6040516020818303038152906040528051906020012014159050919050565b611ec880620022bd83390190565b6000604051905090565b600080fd5b600080fd5b600080fd5b600080fd5b6000601f19601f8301169050919050565b7f4e487b7100000000000000000000000000000000000000000000000000000000600052604160045260246000fd5b6200134b8262001300565b810181811067ffffffffffffffff821117156200136d576200136c62001311565b5b80604052505050565b600062001382620012e2565b905062001390828262001340565b919050565b600067ffffffffffffffff821115620013b357620013b262001311565b5b620013be8262001300565b9050602081019050919050565b82818337600083830152505050565b6000620013f1620013eb8462001395565b62001376565b90508281526020810184848401111562001410576200140f620012fb565b5b6200141d848285620013cb565b509392505050565b600082601f8301126200143d576200143c620012f6565b5b81356200144f848260208601620013da565b91505092915050565b6000819050919050565b6200146d8162001458565b81146200147957600080fd5b50565b6000813590506200148d8162001462565b92915050565b600080600060608486031215620014af57620014ae620012ec565b5b600084013567ffffffffffffffff811115620014d057620014cf620012f1565b5b620014de8682870162001425565b935050602084013567ffffffffffffffff811115620015025762001501620012f1565b5b620015108682870162001425565b925050604062001523868287016200147c565b9150509250925092565b600073ffffffffffffffffffffffffffffffffffffffff82169050919050565b60006200155a826200152d565b9050919050565b6200156c816200154d565b81146200157857600080fd5b50565b6000813590506200158c8162001561565b92915050565b600060208284031215620015ab57620015aa620012ec565b5b6000620015bb848285016200157b565b91505092915050565b600081519050919050565b600082825260208201905092915050565b60005b8381101562001600578082015181840152602081019050620015e3565b60008484015250505050565b60006200161982620015c4565b620016258185620015cf565b935062001637818560208601620015e0565b620016428162001300565b840191505092915050565b600060208201905081810360008301526200166981846200160c565b905092915050565b60008115159050919050565b620016888162001671565b82525050565b6000604082019050620016a560008301856200167d565b8181036020830152620016b981846200160c565b90509392505050565b600060208284031215620016db57620016da620012ec565b5b600082013567ffffffffffffffff811115620016fc57620016fb620012f1565b5b6200170a8482850162001425565b91505092915050565b6200171e816200154d565b82525050565b60006040820190506200173b600083018562001713565b81810360208301526200174f81846200160c565b90509392505050565b60006020820190506200176f600083018462001713565b92915050565b620017808162001458565b82525050565b60006060820190506200179d600083018662001775565b620017ac602083018562001775565b620017bb604083018462001775565b949350505050565b6000602082019050620017da600083018462001775565b92915050565b6000602082019050620017f760008301846200167d565b92915050565b600060608201905081810360008301526200181981866200160c565b905081810360208301526200182f81856200160c565b905062001840604083018462001775565b949350505050565b600081519050919050565b600082825260208201905092915050565b6000819050602082019050919050565b600082825260208201905092915050565b60006200189282620015c4565b6200189e818562001874565b9350620018b0818560208601620015e0565b620018bb8162001300565b840191505092915050565b6000620018d4838362001885565b905092915050565b6000602082019050919050565b6000620018f68262001848565b62001902818562001853565b935083602082028501620019168562001864565b8060005b85811015620019585784840389528151620019368582620018c6565b94506200194383620018dc565b925060208a019950506001810190506200191a565b50829750879550505050505092915050565b60006020820190508181036000830152620019868184620018e9565b905092915050565b7f59612065786973746520756e207573756172696f2061736f636961646f20612060008201527f6573746120646972656363696f6e000000000000000000000000000000000000602082015250565b6000620019ec602e83620015cf565b9150620019f9826200198e565b604082019050919050565b6000602082019050818103600083015262001a1f81620019dd565b9050919050565b7f59612065786973746520646963686f206e6f6d6272652064652075737561726960008201527f6f00000000000000000000000000000000000000000000000000000000000000602082015250565b600062001a84602183620015cf565b915062001a918262001a26565b604082019050919050565b6000602082019050818103600083015262001ab78162001a75565b9050919050565b7f4e487b7100000000000000000000000000000000000000000000000000000000600052602260045260246000fd5b6000600282049050600182168062001b0657607f821691505b60208210810362001b1c5762001b1b62001abe565b5b50919050565b60008190508160005260206000209050919050565b60006020601f8301049050919050565b600082821b905092915050565b60006008830262001b867fffffffffffffffffffffffffffffffffffffffffffffffffffffffffffffffff8262001b47565b62001b92868362001b47565b95508019841693508086168417925050509392505050565b6000819050919050565b600062001bd562001bcf62001bc98462001458565b62001baa565b62001458565b9050919050565b6000819050919050565b62001bf18362001bb4565b62001c0962001c008262001bdc565b84845462001b54565b825550505050565b600090565b62001c2062001c11565b62001c2d81848462001be6565b505050565b5b8181101562001c555762001c4960008262001c16565b60018101905062001c33565b5050565b601f82111562001ca45762001c6e8162001b22565b62001c798462001b37565b8101602085101562001c89578190505b62001ca162001c988562001b37565b83018262001c32565b50505b505050565b600082821c905092915050565b600062001cc96000198460080262001ca9565b1980831691505092915050565b600062001ce4838362001cb6565b9150826002028217905092915050565b62001cff82620015c4565b67ffffffffffffffff81111562001d1b5762001d1a62001311565b5b62001d27825462001aed565b62001d3482828562001c59565b600060209050601f83116001811462001d6c576000841562001d57578287015190505b62001d63858262001cd6565b86555062001dd3565b601f19841662001d7c8662001b22565b60005b8281101562001da65784890151825560018201915060208501945060208101905062001d7f565b8683101562001dc6578489015162001dc2601f89168262001cb6565b8355505b6001600288020188555050505b505050505050565b7f4e487b7100000000000000000000000000000000000000000000000000000000600052601160045260246000fd5b600062001e178262001458565b91507fffffffffffffffffffffffffffffffffffffffffffffffffffffffffffffffff820362001e4c5762001e4b62001ddb565b5b600182019050919050565b600062001e648262001458565b915062001e718362001458565b925082820390508181111562001e8c5762001e8b62001ddb565b5b92915050565b600062001e9f8262001458565b915062001eac8362001458565b925082820190508082111562001ec75762001ec662001ddb565b5b92915050565b600062001eda8262001458565b915062001ee78362001458565b925082820262001ef78162001458565b9150828204841483151762001f115762001f1062001ddb565b5b5092915050565b7f536f6c6f20707565646520726563617267617220656c2073616c646f20676c6f60008201527f62616c20656c2061646d696e2064656c2073697374656d610000000000000000602082015250565b600062001f76603883620015cf565b915062001f838262001f18565b604082019050919050565b6000602082019050818103600083015262001fa98162001f67565b9050919050565b7f59612065786973746520756e6120656e74696461642061736f6369616461206160008201527f206573746120646972656363696f6e0000000000000000000000000000000000602082015250565b60006200200e602f83620015cf565b91506200201b8262001fb0565b604082019050919050565b60006020820190508181036000830152620020418162001fff565b9050919050565b600081905092915050565b60006200206082620015c4565b6200206c818562002048565b93506200207e818560208601620015e0565b80840191505092915050565b600062002098828462002053565b915081905092915050565b7f59612065786973746520756e6120656e7469646164207265676973747261646160008201527f20636f6e20656c206e6f6d627265206461646f00000000000000000000000000602082015250565b600062002101603383620015cf565b91506200210e82620020a3565b604082019050919050565b600060208201905081810360008301526200213481620020f2565b9050919050565b7f41706f72746163696f6e206e6f20737566696369656e74652e204c612061706f60008201527f72746163696f6e206d696e696d6120657320646520302c303120455448000000602082015250565b600062002199603d83620015cf565b9150620021a6826200213b565b604082019050919050565b60006020820190508181036000830152620021cc816200218a565b9050919050565b60008154620021e28162001aed565b620021ee818662002048565b945060018216600081146200220c5760018114620022225762002259565b60ff198316865281151582028601935062002259565b6200222d8562001b22565b60005b83811015620022515781548189015260018201915060208101905062002230565b838801955050505b50505092915050565b6000620022708284620021d3565b915081905092915050565b50565b60006200228d60008362002048565b91506200229a826200227b565b600082019050919050565b6000620022b2826200227e565b915081905091905056fe60a06040526129cc6080908152503480156200001a57600080fd5b5060405162001ec838038062001ec883398181016040528101906200004091906200022c565b336000806101000a81548173ffffffffffffffffffffffffffffffffffffffff021916908373ffffffffffffffffffffffffffffffffffffffff1602179055508060019081620000919190620004c8565b5050620005af565b6000604051905090565b600080fd5b600080fd5b600080fd5b600080fd5b6000601f19601f8301169050919050565b7f4e487b7100000000000000000000000000000000000000000000000000000000600052604160045260246000fd5b6200010282620000b7565b810181811067ffffffffffffffff82111715620001245762000123620000c8565b5b80604052505050565b60006200013962000099565b9050620001478282620000f7565b919050565b600067ffffffffffffffff8211156200016a5762000169620000c8565b5b6200017582620000b7565b9050602081019050919050565b60005b83811015620001a257808201518184015260208101905062000185565b60008484015250505050565b6000620001c5620001bf846200014c565b6200012d565b905082815260208101848484011115620001e457620001e3620000b2565b5b620001f184828562000182565b509392505050565b600082601f830112620002115762000210620000ad565b5b815162000223848260208601620001ae565b91505092915050565b600060208284031215620002455762000244620000a3565b5b600082015167ffffffffffffffff811115620002665762000265620000a8565b5b6200027484828501620001f9565b91505092915050565b600081519050919050565b7f4e487b7100000000000000000000000000000000000000000000000000000000600052602260045260246000fd5b60006002820490506001821680620002d057607f821691505b602082108103620002e657620002e562000288565b5b50919050565b60008190508160005260206000209050919050565b60006020601f8301049050919050565b600082821b905092915050565b600060088302620003507fffffffffffffffffffffffffffffffffffffffffffffffffffffffffffffffff8262000311565b6200035c868362000311565b95508019841693508086168417925050509392505050565b6000819050919050565b6000819050919050565b6000620003a9620003a36200039d8462000374565b6200037e565b62000374565b9050919050565b6000819050919050565b620003c58362000388565b620003dd620003d482620003b0565b8484546200031e565b825550505050565b600090565b620003f4620003e5565b62000401818484620003ba565b505050565b5b8181101562000429576200041d600082620003ea565b60018101905062000407565b5050565b601f82111562000478576200044281620002ec565b6200044d8462000301565b810160208510156200045d578190505b620004756200046c8562000301565b83018262000406565b50505b505050565b600082821c905092915050565b60006200049d600019846008026200047d565b1980831691505092915050565b6000620004b883836200048a565b9150826002028217905092915050565b620004d3826200027d565b67ffffffffffffffff811115620004ef57620004ee620000c8565b5b620004fb8254620002b7565b620005088282856200042d565b600060209050601f8311600181146200054057600084156200052b578287015190505b620005378582620004aa565b865550620005a7565b601f1984166200055086620002ec565b60005b828110156200057a5784890151825560018201915060208501945060208101905062000553565b868310156200059a578489015162000596601f8916826200048a565b8355505b6001600288020188555050505b505050505050565b6080516118fd620005cb6000396000610a3901526118fd6000f3fe6080604052600436106100595760003560e01c80632241eb66146100625780633fff25a41461008d5780636be1cd1e146100975780636f9fb98a146100c45780638e11d155146100ef5780639039ae281461011b57610060565b3661006057005b005b34801561006e57600080fd5b50610077610137565b6040516100849190610df8565b60405180910390f35b610095610439565b005b3480156100a357600080fd5b506100ac610514565b6040516100bb93929190610e29565b60405180910390f35b3480156100d057600080fd5b506100d961060c565b6040516100e69190610e60565b60405180910390f35b3480156100fb57600080fd5b506101046106ee565b604051610112929190610e7b565b60405180910390f35b61013560048036038101906101309190611019565b6106ff565b005b606060008054906101000a900473ffffffffffffffffffffffffffffffffffffffff1673ffffffffffffffffffffffffffffffffffffffff1663e7dd1ce6336040518263ffffffff1660e01b815260040161019291906110e5565b602060405180830381865afa1580156101af573d6000803e3d6000fd5b505050506040513d601f19601f820116820180604052508101906101d39190611138565b610212576040517f08c379a00000000000000000000000000000000000000000000000000000000081526004016102099061120e565b60405180910390fd5b6002805480602002602001604051908101604052809291908181526020016000905b8282101561043057838290600052602060002090600502016040518060a00160405290816000820180546102679061125d565b80601f01602080910402602001604051908101604052809291908181526020018280546102939061125d565b80156102e05780601f106102b5576101008083540402835291602001916102e0565b820191906000526020600020905b8154815290600101906020018083116102c357829003601f168201915b50505050508152602001600182015481526020016002820154815260200160038201805461030d9061125d565b80601f01602080910402602001604051908101604052809291908181526020018280546103399061125d565b80156103865780601f1061035b57610100808354040283529160200191610386565b820191906000526020600020905b81548152906001019060200180831161036957829003601f168201915b5050505050815260200160048201805461039f9061125d565b80601f01602080910402602001604051908101604052809291908181526020018280546103cb9061125d565b80156104185780601f106103ed57610100808354040283529160200191610418565b820191906000526020600020905b8154815290600101906020018083116103fb57829003601f168201915b50505050508152505081526020019060010190610234565b50505050905090565b60008054906101000a900473ffffffffffffffffffffffffffffffffffffffff1673ffffffffffffffffffffffffffffffffffffffff1663e7dd1ce6336040518263ffffffff1660e01b815260040161049291906110e5565b602060405180830381865afa1580156104af573d6000803e3d6000fd5b505050506040513d601f19601f820116820180604052508101906104d39190611138565b610512576040517f08c379a00000000000000000000000000000000000000000000000000000000081526004016105099061120e565b60405180910390fd5b565b60008060008060009054906101000a900473ffffffffffffffffffffffffffffffffffffffff1673ffffffffffffffffffffffffffffffffffffffff1663e7dd1ce6336040518263ffffffff1660e01b815260040161057391906110e5565b602060405180830381865afa158015610590573d6000803e3d6000fd5b505050506040513d601f19601f820116820180604052508101906105b49190611138565b6105f3576040517f08c379a00000000000000000000000000000000000000000000000000000000081526004016105ea9061120e565b60405180910390fd5b60045492506005549150610605610acc565b9050909192565b60008060009054906101000a900473ffffffffffffffffffffffffffffffffffffffff1673ffffffffffffffffffffffffffffffffffffffff1663e7dd1ce6336040518263ffffffff1660e01b815260040161066891906110e5565b602060405180830381865afa158015610685573d6000803e3d6000fd5b505050506040513d601f19601f820116820180604052508101906106a99190611138565b6106e8576040517f08c379a00000000000000000000000000000000000000000000000000000000081526004016106df9061120e565b60405180910390fd5b47905090565b600080600554915060045490509091565b60005a905060008060009054906101000a900473ffffffffffffffffffffffffffffffffffffffff1673ffffffffffffffffffffffffffffffffffffffff166310fe472b336040518263ffffffff1660e01b815260040161076091906110e5565b600060405180830381865afa15801561077d573d6000803e3d6000fd5b505050506040513d6000823e3d601f19601f820116820180604052508101906107a691906112fe565b90506040516020016107b790611378565b60405160208183030381529060405280519060200120816040516020016107de91906113be565b6040516020818303038152906040528051906020012003610834576040517f08c379a000000000000000000000000000000000000000000000000000000000815260040161082b90611447565b60405180910390fd5b61083d33610b40565b61087c576040517f08c379a0000000000000000000000000000000000000000000000000000000008152600401610873906114d9565b60405180910390fd5b60026040518060a0016040528083815260200142815260200187815260200186815260200185815250908060018154018082558091505060019003906000526020600020906005020160009091909190915060008201518160000190816108e391906116a5565b506020820151816001015560408201518160020155606082015181600301908161090d91906116a5565b50608082015181600401908161092391906116a5565b505050600160045461093591906117a6565b600360003373ffffffffffffffffffffffffffffffffffffffff1673ffffffffffffffffffffffffffffffffffffffff1681526020019081526020016000208190555060008054906101000a900473ffffffffffffffffffffffffffffffffffffffff1673ffffffffffffffffffffffffffffffffffffffff1663a8ce79b26040518163ffffffff1660e01b8152600401600060405180830381600087803b1580156109e057600080fd5b505af11580156109f4573d6000803e3d6000fd5b5050505060046000815480929190610a0b906117da565b919050555084600554610a1e91906117a6565b6005819055505060005a82610a339190611822565b905060007f00000000000000000000000000000000000000000000000000000000000000003a61520884610a6791906117a6565b610a719190611856565b610a7b91906117a6565b90503373ffffffffffffffffffffffffffffffffffffffff166108fc829081150290604051600060405180830381858888f19350505050158015610ac3573d6000803e3d6000fd5b50505050505050565b6000806000905060005b600280549050811015610b3857610b1160028281548110610afa57610af9611898565b5b906000526020600020906005020160010154610bef565b15610b25578180610b21906117da565b9250505b8080610b30906117da565b915050610ad6565b508091505090565b6000600190506000600360008473ffffffffffffffffffffffffffffffffffffffff1673ffffffffffffffffffffffffffffffffffffffff1681526020019081526020016000205490506000600280549050118015610ba0575060008114155b15610be95760006002600183610bb69190611822565b81548110610bc757610bc6611898565b5b9060005260206000209060050201600101549050610be481610bef565b159250505b50919050565b600062ed4e008242610c019190611822565b109050919050565b600081519050919050565b600082825260208201905092915050565b6000819050602082019050919050565b600081519050919050565b600082825260208201905092915050565b60005b83811015610c6f578082015181840152602081019050610c54565b60008484015250505050565b6000601f19601f8301169050919050565b6000610c9782610c35565b610ca18185610c40565b9350610cb1818560208601610c51565b610cba81610c7b565b840191505092915050565b6000819050919050565b610cd881610cc5565b82525050565b600060a0830160008301518482036000860152610cfb8282610c8c565b9150506020830151610d106020860182610ccf565b506040830151610d236040860182610ccf565b5060608301518482036060860152610d3b8282610c8c565b91505060808301518482036080860152610d558282610c8c565b9150508091505092915050565b6000610d6e8383610cde565b905092915050565b6000602082019050919050565b6000610d8e82610c09565b610d988185610c14565b935083602082028501610daa85610c25565b8060005b85811015610de65784840389528151610dc78582610d62565b9450610dd283610d76565b925060208a01995050600181019050610dae565b50829750879550505050505092915050565b60006020820190508181036000830152610e128184610d83565b905092915050565b610e2381610cc5565b82525050565b6000606082019050610e3e6000830186610e1a565b610e4b6020830185610e1a565b610e586040830184610e1a565b949350505050565b6000602082019050610e756000830184610e1a565b92915050565b6000604082019050610e906000830185610e1a565b610e9d6020830184610e1a565b9392505050565b6000604051905090565b600080fd5b600080fd5b610ec181610cc5565b8114610ecc57600080fd5b50565b600081359050610ede81610eb8565b92915050565b600080fd5b600080fd5b7f4e487b7100000000000000000000000000000000000000000000000000000000600052604160045260246000fd5b610f2682610c7b565b810181811067ffffffffffffffff82111715610f4557610f44610eee565b5b80604052505050565b6000610f58610ea4565b9050610f648282610f1d565b919050565b600067ffffffffffffffff821115610f8457610f83610eee565b5b610f8d82610c7b565b9050602081019050919050565b82818337600083830152505050565b6000610fbc610fb784610f69565b610f4e565b905082815260208101848484011115610fd857610fd7610ee9565b5b610fe3848285610f9a565b509392505050565b600082601f83011261100057610fff610ee4565b5b8135611010848260208601610fa9565b91505092915050565b60008060006060848603121561103257611031610eae565b5b600061104086828701610ecf565b935050602084013567ffffffffffffffff81111561106157611060610eb3565b5b61106d86828701610feb565b925050604084013567ffffffffffffffff81111561108e5761108d610eb3565b5b61109a86828701610feb565b9150509250925092565b600073ffffffffffffffffffffffffffffffffffffffff82169050919050565b60006110cf826110a4565b9050919050565b6110df816110c4565b82525050565b60006020820190506110fa60008301846110d6565b92915050565b60008115159050919050565b61111581611100565b811461112057600080fd5b50565b6000815190506111328161110c565b92915050565b60006020828403121561114e5761114d610eae565b5b600061115c84828501611123565b91505092915050565b600082825260208201905092915050565b7f4f7065726163696f6e207065726d6974696461206578636c75736976616d656e60008201527f74652061206c6120656e74696461642070726f70696574617269612064656c2060208201527f636f6e747261746f000000000000000000000000000000000000000000000000604082015250565b60006111f8604883611165565b915061120382611176565b606082019050919050565b60006020820190508181036000830152611227816111eb565b9050919050565b7f4e487b7100000000000000000000000000000000000000000000000000000000600052602260045260246000fd5b6000600282049050600182168061127557607f821691505b6020821081036112885761128761122e565b5b50919050565b60006112a161129c84610f69565b610f4e565b9050828152602081018484840111156112bd576112bc610ee9565b5b6112c8848285610c51565b509392505050565b600082601f8301126112e5576112e4610ee4565b5b81516112f584826020860161128e565b91505092915050565b60006020828403121561131457611313610eae565b5b600082015167ffffffffffffffff81111561133257611331610eb3565b5b61133e848285016112d0565b91505092915050565b600081905092915050565b50565b6000611362600083611347565b915061136d82611352565b600082019050919050565b600061138382611355565b9150819050919050565b600061139882610c35565b6113a28185611347565b93506113b2818560208601610c51565b80840191505092915050565b60006113ca828461138d565b915081905092915050565b7f4e6f206573207573756172696f207265676973747261646f207061726120766160008201527f6c6f726172000000000000000000000000000000000000000000000000000000602082015250565b6000611431602583611165565b915061143c826113d5565b604082019050919050565b6000602082019050818103600083015261146081611424565b9050919050565b7f48612076616c6f7261646f206573746120656e74696461642068616365206d6560008201527f6e6f732064652036206d65736573000000000000000000000000000000000000602082015250565b60006114c3602e83611165565b91506114ce82611467565b604082019050919050565b600060208201905081810360008301526114f2816114b6565b9050919050565b60008190508160005260206000209050919050565b60006020601f8301049050919050565b600082821b905092915050565b60006008830261155b7fffffffffffffffffffffffffffffffffffffffffffffffffffffffffffffffff8261151e565b611565868361151e565b95508019841693508086168417925050509392505050565b6000819050919050565b60006115a261159d61159884610cc5565b61157d565b610cc5565b9050919050565b6000819050919050565b6115bc83611587565b6115d06115c8826115a9565b84845461152b565b825550505050565b600090565b6115e56115d8565b6115f08184846115b3565b505050565b5b81811015611614576116096000826115dd565b6001810190506115f6565b5050565b601f8211156116595761162a816114f9565b6116338461150e565b81016020851015611642578190505b61165661164e8561150e565b8301826115f5565b50505b505050565b600082821c905092915050565b600061167c6000198460080261165e565b1980831691505092915050565b6000611695838361166b565b9150826002028217905092915050565b6116ae82610c35565b67ffffffffffffffff8111156116c7576116c6610eee565b5b6116d1825461125d565b6116dc828285611618565b600060209050601f83116001811461170f57600084156116fd578287015190505b6117078582611689565b86555061176f565b601f19841661171d866114f9565b60005b8281101561174557848901518255600182019150602085019450602081019050611720565b86831015611762578489015161175e601f89168261166b565b8355505b6001600288020188555050505b505050505050565b7f4e487b7100000000000000000000000000000000000000000000000000000000600052601160045260246000fd5b60006117b182610cc5565b91506117bc83610cc5565b92508282019050808211156117d4576117d3611777565b5b92915050565b60006117e582610cc5565b91507fffffffffffffffffffffffffffffffffffffffffffffffffffffffffffffffff820361181757611816611777565b5b600182019050919050565b600061182d82610cc5565b915061183883610cc5565b92508282039050818111156118505761184f611777565b5b92915050565b600061186182610cc5565b915061186c83610cc5565b925082820261187a81610cc5565b9150828204841483151761189157611890611777565b5b5092915050565b7f4e487b7100000000000000000000000000000000000000000000000000000000600052603260045260246000fdfea26469706673582212203bb880b05e5b7346766cbaf02a5975eff4ccce7fc787c94ae52d36e75287ffa964736f6c63430008110033a26469706673582212203ed60fc03521043941f73f430ce6f6f52bf26b3f8e0001e7f6cddce67f0f520e64736f6c63430008110033",
  "immutableReferences": {
    "44": [
      {
        "length": 32,
        "start": 2499
      }
    ],
    "47": [
      {
        "length": 32,
        "start": 2893
      }
    ],
    "817": [
      {
        "length": 32,
        "start": 1397
      }
    ]
  },
  "source": "// SPDX-License-Identifier: UNLICENSED\npragma solidity ^0.8.17;\n\nimport './entidad.sol' ;\nimport './freeForUser.sol' ;\n\ncontract Core is FreeForUser{ \n    \n    struct Usuario {\n        string usrName ;\n        string nameCompleto;\n        uint fechaNac;\n    }\n\n    mapping(address => string) usrLogin ;\n    mapping(address => string) entLogin ;\n    mapping(address => Usuario) strUsuarios ;\n    mapping(string => address) conEntidades ;\n    string[] entList ;\n    address admin ;\n    uint totalUsr ;\n    uint totalRes ;\n  \n    uint immutable MIN_APORT_ADMIN = 50000000000000000 ;\n    uint immutable MIN_APORT_ENT = 10000000000000000 ;\n    uint immutable COMISION = 500000000 ;\n\n    modifier onlyAdmin(){\n        require(msg.sender == admin, \"Solo puede recargar el saldo global el admin del sistema\") ;\n        _ ;\n    }\n    \n    constructor() payable{\n        require(msg.value >= MIN_APORT_ADMIN, \"Aportacion no suficiente. La aportacion inicial minima es de 0,05 ETH\") ;\n        admin = msg.sender ;\n    }\n\n    function existeUsr(address wallet) internal view returns (bool existe){\n        return keccak256(abi.encodePacked(usrLogin[wallet])) != keccak256(abi.encodePacked(\"\")) ;\n    }\n\n    function existeEnt(address wallet) internal view returns (bool existe){\n        return keccak256(abi.encodePacked(entLogin[wallet])) != keccak256(abi.encodePacked(\"\")) ;\n    }\n\n    function addNuevoUsuario(string memory usrName, string memory nombre, uint fechaNac) external payable devolverFee{\n        require(!existeUsr(msg.sender), \"Ya existe un usuario asociado a esta direccion\") ;\n        require(strUsuarios[msg.sender].fechaNac == 0, \"Ya existe dicho nombre de usuario\") ;\n        usrLogin[msg.sender] = usrName ;\n        strUsuarios[msg.sender].usrName = usrName ;\n        strUsuarios[msg.sender].nameCompleto = nombre ;\n        strUsuarios[msg.sender].fechaNac = fechaNac ;\n        totalUsr++ ;\n    }\n    \n    function addNuevaEntidad(string memory nombre) external payable{\n        require(!existeEnt(msg.sender), \"Ya existe una entidad asociada a esta direccion\") ;\n        require(conEntidades[nombre] == address(0), \"Ya existe una entidad registrada con el nombre dado\") ;\n        require(msg.value >= MIN_APORT_ENT, \"Aportacion no suficiente. La aportacion minima es de 0,01 ETH\") ;\n        entLogin[msg.sender] = nombre ;\n        address direccion = address(new Entidad(nombre));\n        conEntidades[nombre] = direccion ;\n        entList.push(nombre);\n        uint saldo = msg.value - COMISION ;\n        payable(direccion).transfer(saldo) ;\n    }\n    \n    function getDatosUsuario() external view returns(string memory usrName, string memory nameCompleto, uint fechaNac){\n\t\tUsuario memory usr =  strUsuarios[msg.sender] ;\n        usrName = usr.usrName ;\n        nameCompleto = usr.nameCompleto ;\n        fechaNac = usr.fechaNac ; \n    }\n\n    function cargarSaldoGlobal() external payable onlyAdmin{\n    }\n\n    function getEntidades() external view returns(string[] memory entidades){\n        entidades = entList  ;\n    }\n\n    function getMetricasSistema() external view onlyAdmin returns(uint totalUsuarios, uint totalEntidades, uint _totalRes){\n\t\ttotalUsuarios = totalUsr ;\n\t\ttotalEntidades = entList.length ;\n        _totalRes = totalRes ;\n    }\n\n    function isRegistered() external view  returns(bool registered, string memory tipo){\n        registered = true ;\n        if(existeUsr(msg.sender))\n            tipo = \"usuario\" ;\n        else if(existeEnt(msg.sender))\n            tipo = \"entidad\" ;\n        else if(msg.sender == admin)\n            tipo = \"admin\" ;\n        else\n            registered = false ;\n    }\n\n    function getUserNameByAddress(address sender) external view returns(string memory usrName){\n        usrName = usrLogin[sender] ;\n    }\n\n    \n    function getContratoEntAddress() public view returns(address dirContrato, string memory _marca){\n        _marca = entLogin[msg.sender] ;\n        dirContrato = getContratoEnt(_marca) ;\n    }\n\n    function getContratoEnt(string memory nombre) public view returns(address dirContrato){\n        dirContrato = conEntidades[nombre] ;\n    }\n\n    function esEntidadContr(address wallet) external view returns(bool _esEntidadContr){\n        _esEntidadContr = conEntidades[entLogin[wallet]] == msg.sender ;\n    }\n\n    function incRes() external{\n        totalRes++ ;\n    }\n\n\n    function getContractBalance() public view onlyAdmin returns(uint balance){\n        balance = address(this).balance;\n    }\n    \n}",
  "sourcePath": "/Users/alvarojimenez/Desktop/Master/ProyectoEthereum/dev/reseg_final/contracts/core.sol",
  "compiler": {
    "name": "solc",
    "version": "0.8.17+commit.8df45f5f.Emscripten.clang"
  },
  "schemaVersion": "3.4.11",
  "updatedAt": "2023-04-14T13:12:14.391Z",
  "networkType": "ethereum",
  "devdoc": {
    "kind": "dev",
    "methods": {},
    "version": 1
  },
  "userdoc": {
    "kind": "user",
    "methods": {},
    "version": 1
  }
}