{
  "contractName": "Core",
  "abi": [
    {
      "inputs": [],
      "stateMutability": "payable",
      "type": "constructor",
      "payable": true
    },
    {
      "inputs": [
        {
          "internalType": "string",
          "name": "usrName",
          "type": "string"
        },
        {
          "internalType": "string",
          "name": "nombre",
          "type": "string"
        },
        {
          "internalType": "uint256",
          "name": "fechaNac",
          "type": "uint256"
        }
      ],
      "name": "addNuevoUsuario",
      "outputs": [],
      "stateMutability": "payable",
      "type": "function",
      "payable": true
    },
    {
      "inputs": [
        {
          "internalType": "string",
          "name": "nombre",
          "type": "string"
        }
      ],
      "name": "addNuevaEntidad",
      "outputs": [],
      "stateMutability": "payable",
      "type": "function",
      "payable": true
    },
    {
      "inputs": [],
      "name": "getDatosUsuario",
      "outputs": [
        {
          "internalType": "string",
          "name": "usrName",
          "type": "string"
        },
        {
          "internalType": "string",
          "name": "nameCompleto",
          "type": "string"
        },
        {
          "internalType": "uint256",
          "name": "fechaNac",
          "type": "uint256"
        }
      ],
      "stateMutability": "view",
      "type": "function",
      "constant": true
    },
    {
      "inputs": [],
      "name": "cargarSaldoGlobal",
      "outputs": [],
      "stateMutability": "payable",
      "type": "function",
      "payable": true
    },
    {
      "inputs": [],
      "name": "getContratoEntAddress",
      "outputs": [
        {
          "internalType": "address",
          "name": "dirContrato",
          "type": "address"
        },
        {
          "internalType": "string",
          "name": "_marca",
          "type": "string"
        }
      ],
      "stateMutability": "view",
      "type": "function",
      "constant": true
    },
    {
      "inputs": [
        {
          "internalType": "string",
          "name": "nombre",
          "type": "string"
        }
      ],
      "name": "getContratoEnt",
      "outputs": [
        {
          "internalType": "address",
          "name": "dirContrato",
          "type": "address"
        }
      ],
      "stateMutability": "view",
      "type": "function",
      "constant": true
    },
    {
      "inputs": [],
      "name": "isRegistered",
      "outputs": [
        {
          "internalType": "bool",
          "name": "registered",
          "type": "bool"
        },
        {
          "internalType": "string",
          "name": "tipo",
          "type": "string"
        }
      ],
      "stateMutability": "view",
      "type": "function",
      "constant": true
    },
    {
      "inputs": [
        {
          "internalType": "address",
          "name": "sender",
          "type": "address"
        }
      ],
      "name": "getUserNameByAddress",
      "outputs": [
        {
          "internalType": "string",
          "name": "usrName",
          "type": "string"
        }
      ],
      "stateMutability": "view",
      "type": "function",
      "constant": true
    },
    {
      "inputs": [],
      "name": "getEntidades",
      "outputs": [
        {
          "internalType": "string[]",
          "name": "entidades",
          "type": "string[]"
        }
      ],
      "stateMutability": "view",
      "type": "function",
      "constant": true
    },
    {
      "inputs": [
        {
          "internalType": "address",
          "name": "wallet",
          "type": "address"
        }
      ],
      "name": "esEntidadContr",
      "outputs": [
        {
          "internalType": "bool",
          "name": "_esEntidadContr",
          "type": "bool"
        }
      ],
      "stateMutability": "view",
      "type": "function",
      "constant": true
    },
    {
      "inputs": [],
      "name": "incRes",
      "outputs": [],
      "stateMutability": "nonpayable",
      "type": "function"
    },
    {
      "inputs": [],
      "name": "getMetricasSistema",
      "outputs": [
        {
          "internalType": "uint256",
          "name": "totalUsuarios",
          "type": "uint256"
        },
        {
          "internalType": "uint256",
          "name": "totalEntidades",
          "type": "uint256"
        },
        {
          "internalType": "uint256",
          "name": "_totalRes",
          "type": "uint256"
        }
      ],
      "stateMutability": "view",
      "type": "function",
      "constant": true
    },
    {
      "inputs": [],
      "name": "getContractBalance",
      "outputs": [
        {
          "internalType": "uint256",
          "name": "balance",
          "type": "uint256"
        }
      ],
      "stateMutability": "view",
      "type": "function",
      "constant": true
    }
  ],
  "bytecode": "0x6101006040526129cc60809081525067016345785d8a000060a090815250662386f26fc1000060c0908152506207a12060e09081525060a0513410156200007d576040517f08c379a0000000000000000000000000000000000000000000000000000000008152600401620000749062000171565b60405180910390fd5b33600560006101000a81548173ffffffffffffffffffffffffffffffffffffffff021916908373ffffffffffffffffffffffffffffffffffffffff16021790555062000193565b600082825260208201905092915050565b7f41706f72746163696f6e206e6f20737566696369656e74652e204c612061706f60008201527f72746163696f6e20696e696369616c206465626520736572207375706572696f60208201527f72206120302c3120455448000000000000000000000000000000000000000000604082015250565b600062000159604b83620000c4565b91506200016682620000d5565b606082019050919050565b600060208201905081810360008301526200018c816200014a565b9050919050565b60805160a05160c05160e0516144e6620001ca6000396000610d3f01526000610bb301526000505060006105dd01526144e66000f3fe608060405260043610620000d45760003560e01c806358678947116200008b578063a8ce79b21162000061578063a8ce79b21462000271578063e7dd1ce6146200028b578063e80222c514620002cf578063e93c216f146200030157620000d4565b80635867894714620001cb578063595babb5146200020f5780636f9fb98a146200024157620000d4565b806302cd163e14620000d957806310fe472b14620000f957806322366844146200013d5780633ab08371146200016e5780633b4ee4ee146200017a57806341c518f0146200019a575b600080fd5b620000f76004803603810190620000f1919062001554565b62000331565b005b3480156200010657600080fd5b506200012560048036038101906200011f919062001653565b62000677565b6040516200013491906200170e565b60405180910390f35b3480156200014a57600080fd5b50620001556200074f565b604051620001659291906200174f565b60405180910390f35b6200017862000999565b005b62000198600480360381019062000192919062001783565b62000a2e565b005b348015620001a757600080fd5b50620001b262000dba565b604051620001c2929190620017e5565b60405180910390f35b348015620001d857600080fd5b50620001f76004803603810190620001f1919062001783565b62000ea1565b60405162000206919062001819565b60405180910390f35b3480156200021c57600080fd5b506200022762000eeb565b604051620002389392919062001847565b60405180910390f35b3480156200024e57600080fd5b506200025962000f9a565b60405162000268919062001884565b60405180910390f35b3480156200027e57600080fd5b506200028962001035565b005b3480156200029857600080fd5b50620002b76004803603810190620002b1919062001653565b62001051565b604051620002c69190620018a1565b60405180910390f35b348015620002dc57600080fd5b50620002e762001107565b604051620002f893929190620018be565b60405180910390f35b3480156200030e57600080fd5b5062000319620012b2565b60405162000328919062001a2b565b60405180910390f35b60005a9050604051602001620003479062001a84565b604051602081830303815290604052805190602001206000803373ffffffffffffffffffffffffffffffffffffffff1673ffffffffffffffffffffffffffffffffffffffff168152602001908152602001600020604051602001620003ad919062001ba3565b604051602081830303815290604052805190602001201462000406576040517f08c379a0000000000000000000000000000000000000000000000000000000008152600401620003fd9062001c32565b60405180910390fd5b6000600260003373ffffffffffffffffffffffffffffffffffffffff1673ffffffffffffffffffffffffffffffffffffffff16815260200190815260200160002060020154146200048e576040517f08c379a0000000000000000000000000000000000000000000000000000000008152600401620004859062001cca565b60405180910390fd5b836000803373ffffffffffffffffffffffffffffffffffffffff1673ffffffffffffffffffffffffffffffffffffffff1681526020019081526020016000209081620004db919062001ea9565b5083600260003373ffffffffffffffffffffffffffffffffffffffff1673ffffffffffffffffffffffffffffffffffffffff16815260200190815260200160002060000190816200052d919062001ea9565b5082600260003373ffffffffffffffffffffffffffffffffffffffff1673ffffffffffffffffffffffffffffffffffffffff16815260200190815260200160002060010190816200057f919062001ea9565b5081600260003373ffffffffffffffffffffffffffffffffffffffff1673ffffffffffffffffffffffffffffffffffffffff1681526020019081526020016000206002018190555060005a82620005d7919062001fbf565b905060007f00000000000000000000000000000000000000000000000000000000000000003a615208846200060d919062001ffa565b62000619919062002035565b62000625919062001ffa565b90503373ffffffffffffffffffffffffffffffffffffffff166108fc829081150290604051600060405180830381858888f193505050501580156200066e573d6000803e3d6000fd5b50505050505050565b60606000808373ffffffffffffffffffffffffffffffffffffffff1673ffffffffffffffffffffffffffffffffffffffff1681526020019081526020016000208054620006c49062001aca565b80601f0160208091040260200160405190810160405280929190818152602001828054620006f29062001aca565b8015620007435780601f10620007175761010080835404028352916020019162000743565b820191906000526020600020905b8154815290600101906020018083116200072557829003601f168201915b50505050509050919050565b6000606060019150604051602001620007689062001a84565b604051602081830303815290604052805190602001206000803373ffffffffffffffffffffffffffffffffffffffff1673ffffffffffffffffffffffffffffffffffffffff168152602001908152602001600020604051602001620007ce919062001ba3565b604051602081830303815290604052805190602001201462000828576040518060400160405280600781526020017f7573756172696f00000000000000000000000000000000000000000000000000815250905062000995565b604051602001620008399062001a84565b60405160208183030381529060405280519060200120600160003373ffffffffffffffffffffffffffffffffffffffff1673ffffffffffffffffffffffffffffffffffffffff168152602001908152602001600020604051602001620008a0919062001ba3565b6040516020818303038152906040528051906020012014620008fa576040518060400160405280600781526020017f656e746964616400000000000000000000000000000000000000000000000000815250905062000994565b600560009054906101000a900473ffffffffffffffffffffffffffffffffffffffff1673ffffffffffffffffffffffffffffffffffffffff163373ffffffffffffffffffffffffffffffffffffffff16036200098e576040518060400160405280600581526020017f61646d696e000000000000000000000000000000000000000000000000000000815250905062000993565b600091505b5b5b9091565b600560009054906101000a900473ffffffffffffffffffffffffffffffffffffffff1673ffffffffffffffffffffffffffffffffffffffff163373ffffffffffffffffffffffffffffffffffffffff161462000a2c576040517f08c379a000000000000000000000000000000000000000000000000000000000815260040162000a2390620020f6565b60405180910390fd5b565b60405160200162000a3f9062001a84565b60405160208183030381529060405280519060200120600160003373ffffffffffffffffffffffffffffffffffffffff1673ffffffffffffffffffffffffffffffffffffffff16815260200190815260200160002060405160200162000aa6919062001ba3565b604051602081830303815290604052805190602001201462000aff576040517f08c379a000000000000000000000000000000000000000000000000000000000815260040162000af6906200218e565b60405180910390fd5b600073ffffffffffffffffffffffffffffffffffffffff1660038260405162000b299190620021e7565b908152602001604051809103902060009054906101000a900473ffffffffffffffffffffffffffffffffffffffff1673ffffffffffffffffffffffffffffffffffffffff161462000bb1576040517f08c379a000000000000000000000000000000000000000000000000000000000815260040162000ba89062002276565b60405180910390fd5b7f000000000000000000000000000000000000000000000000000000000000000034101562000c17576040517f08c379a000000000000000000000000000000000000000000000000000000000815260040162000c0e906200230e565b60405180910390fd5b80600160003373ffffffffffffffffffffffffffffffffffffffff1673ffffffffffffffffffffffffffffffffffffffff168152602001908152602001600020908162000c65919062001ea9565b506000338260405162000c789062001395565b62000c85929190620017e5565b604051809103906000f08015801562000ca2573d6000803e3d6000fd5b5090508060038360405162000cb89190620021e7565b908152602001604051809103902060006101000a81548173ffffffffffffffffffffffffffffffffffffffff021916908373ffffffffffffffffffffffffffffffffffffffff16021790555060048290806001815401808255809150506001900390600052602060002001600090919091909150908162000d3a919062001ea9565b5060007f00000000000000000000000000000000000000000000000000000000000000003462000d6b919062001fbf565b90508173ffffffffffffffffffffffffffffffffffffffff166108fc829081150290604051600060405180830381858888f1935050505015801562000db4573d6000803e3d6000fd5b50505050565b60006060600160003373ffffffffffffffffffffffffffffffffffffffff1673ffffffffffffffffffffffffffffffffffffffff168152602001908152602001600020805462000e0a9062001aca565b80601f016020809104026020016040519081016040528092919081815260200182805462000e389062001aca565b801562000e895780601f1062000e5d5761010080835404028352916020019162000e89565b820191906000526020600020905b81548152906001019060200180831162000e6b57829003601f168201915b5050505050905062000e9b8162000ea1565b91509091565b600060038260405162000eb59190620021e7565b908152602001604051809103902060009054906101000a900473ffffffffffffffffffffffffffffffffffffffff169050919050565b6000806000600560009054906101000a900473ffffffffffffffffffffffffffffffffffffffff1673ffffffffffffffffffffffffffffffffffffffff163373ffffffffffffffffffffffffffffffffffffffff161462000f83576040517f08c379a000000000000000000000000000000000000000000000000000000000815260040162000f7a90620020f6565b60405180910390fd5b600654925060048054905091506007549050909192565b6000600560009054906101000a900473ffffffffffffffffffffffffffffffffffffffff1673ffffffffffffffffffffffffffffffffffffffff163373ffffffffffffffffffffffffffffffffffffffff16146200102f576040517f08c379a00000000000000000000000000000000000000000000000000000000081526004016200102690620020f6565b60405180910390fd5b47905090565b600760008154809291906200104a9062002330565b9190505550565b60003373ffffffffffffffffffffffffffffffffffffffff166003600160008573ffffffffffffffffffffffffffffffffffffffff1673ffffffffffffffffffffffffffffffffffffffff168152602001908152602001600020604051620010ba919062001ba3565b908152602001604051809103902060009054906101000a900473ffffffffffffffffffffffffffffffffffffffff1673ffffffffffffffffffffffffffffffffffffffff16149050919050565b606080600080600260003373ffffffffffffffffffffffffffffffffffffffff1673ffffffffffffffffffffffffffffffffffffffff168152602001908152602001600020604051806060016040529081600082018054620011699062001aca565b80601f0160208091040260200160405190810160405280929190818152602001828054620011979062001aca565b8015620011e85780601f10620011bc57610100808354040283529160200191620011e8565b820191906000526020600020905b815481529060010190602001808311620011ca57829003601f168201915b50505050508152602001600182018054620012039062001aca565b80601f0160208091040260200160405190810160405280929190818152602001828054620012319062001aca565b8015620012825780601f10620012565761010080835404028352916020019162001282565b820191906000526020600020905b8154815290600101906020018083116200126457829003601f168201915b50505050508152602001600282015481525050905080600001519350806020015192508060400151915050909192565b60606004805480602002602001604051908101604052809291908181526020016000905b828210156200138c578382906000526020600020018054620012f89062001aca565b80601f0160208091040260200160405190810160405280929190818152602001828054620013269062001aca565b8015620013775780601f106200134b5761010080835404028352916020019162001377565b820191906000526020600020905b8154815290600101906020018083116200135957829003601f168201915b505050505081526020019060010190620012d6565b50505050905090565b612133806200237e83390190565b6000604051905090565b600080fd5b600080fd5b600080fd5b600080fd5b6000601f19601f8301169050919050565b7f4e487b7100000000000000000000000000000000000000000000000000000000600052604160045260246000fd5b6200140c82620013c1565b810181811067ffffffffffffffff821117156200142e576200142d620013d2565b5b80604052505050565b600062001443620013a3565b905062001451828262001401565b919050565b600067ffffffffffffffff821115620014745762001473620013d2565b5b6200147f82620013c1565b9050602081019050919050565b82818337600083830152505050565b6000620014b2620014ac8462001456565b62001437565b905082815260208101848484011115620014d157620014d0620013bc565b5b620014de8482856200148c565b509392505050565b600082601f830112620014fe57620014fd620013b7565b5b8135620015108482602086016200149b565b91505092915050565b6000819050919050565b6200152e8162001519565b81146200153a57600080fd5b50565b6000813590506200154e8162001523565b92915050565b60008060006060848603121562001570576200156f620013ad565b5b600084013567ffffffffffffffff811115620015915762001590620013b2565b5b6200159f86828701620014e6565b935050602084013567ffffffffffffffff811115620015c357620015c2620013b2565b5b620015d186828701620014e6565b9250506040620015e4868287016200153d565b9150509250925092565b600073ffffffffffffffffffffffffffffffffffffffff82169050919050565b60006200161b82620015ee565b9050919050565b6200162d816200160e565b81146200163957600080fd5b50565b6000813590506200164d8162001622565b92915050565b6000602082840312156200166c576200166b620013ad565b5b60006200167c848285016200163c565b91505092915050565b600081519050919050565b600082825260208201905092915050565b60005b83811015620016c1578082015181840152602081019050620016a4565b60008484015250505050565b6000620016da8262001685565b620016e6818562001690565b9350620016f8818560208601620016a1565b6200170381620013c1565b840191505092915050565b600060208201905081810360008301526200172a8184620016cd565b905092915050565b60008115159050919050565b620017498162001732565b82525050565b60006040820190506200176660008301856200173e565b81810360208301526200177a8184620016cd565b90509392505050565b6000602082840312156200179c576200179b620013ad565b5b600082013567ffffffffffffffff811115620017bd57620017bc620013b2565b5b620017cb84828501620014e6565b91505092915050565b620017df816200160e565b82525050565b6000604082019050620017fc6000830185620017d4565b8181036020830152620018108184620016cd565b90509392505050565b6000602082019050620018306000830184620017d4565b92915050565b620018418162001519565b82525050565b60006060820190506200185e600083018662001836565b6200186d602083018562001836565b6200187c604083018462001836565b949350505050565b60006020820190506200189b600083018462001836565b92915050565b6000602082019050620018b860008301846200173e565b92915050565b60006060820190508181036000830152620018da8186620016cd565b90508181036020830152620018f08185620016cd565b905062001901604083018462001836565b949350505050565b600081519050919050565b600082825260208201905092915050565b6000819050602082019050919050565b600082825260208201905092915050565b6000620019538262001685565b6200195f818562001935565b935062001971818560208601620016a1565b6200197c81620013c1565b840191505092915050565b600062001995838362001946565b905092915050565b6000602082019050919050565b6000620019b78262001909565b620019c3818562001914565b935083602082028501620019d78562001925565b8060005b8581101562001a195784840389528151620019f7858262001987565b945062001a04836200199d565b925060208a01995050600181019050620019db565b50829750879550505050505092915050565b6000602082019050818103600083015262001a478184620019aa565b905092915050565b600081905092915050565b50565b600062001a6c60008362001a4f565b915062001a798262001a5a565b600082019050919050565b600062001a918262001a5d565b9150819050919050565b7f4e487b7100000000000000000000000000000000000000000000000000000000600052602260045260246000fd5b6000600282049050600182168062001ae357607f821691505b60208210810362001af95762001af862001a9b565b5b50919050565b60008190508160005260206000209050919050565b6000815462001b238162001aca565b62001b2f818662001a4f565b9450600182166000811462001b4d576001811462001b635762001b9a565b60ff198316865281151582028601935062001b9a565b62001b6e8562001aff565b60005b8381101562001b925781548189015260018201915060208101905062001b71565b838801955050505b50505092915050565b600062001bb1828462001b14565b915081905092915050565b7f59612065786973746520756e207573756172696f2061736f636961646f20612060008201527f6573746120646972656363696f6e000000000000000000000000000000000000602082015250565b600062001c1a602e8362001690565b915062001c278262001bbc565b604082019050919050565b6000602082019050818103600083015262001c4d8162001c0b565b9050919050565b7f59612065786973746520646963686f206e6f6d6272652064652075737561726960008201527f6f00000000000000000000000000000000000000000000000000000000000000602082015250565b600062001cb260218362001690565b915062001cbf8262001c54565b604082019050919050565b6000602082019050818103600083015262001ce58162001ca3565b9050919050565b60006020601f8301049050919050565b600082821b905092915050565b60006008830262001d3b7fffffffffffffffffffffffffffffffffffffffffffffffffffffffffffffffff8262001cfc565b62001d47868362001cfc565b95508019841693508086168417925050509392505050565b6000819050919050565b600062001d8a62001d8462001d7e8462001519565b62001d5f565b62001519565b9050919050565b6000819050919050565b62001da68362001d69565b62001dbe62001db58262001d91565b84845462001d09565b825550505050565b600090565b62001dd562001dc6565b62001de281848462001d9b565b505050565b5b8181101562001e0a5762001dfe60008262001dcb565b60018101905062001de8565b5050565b601f82111562001e595762001e238162001aff565b62001e2e8462001cec565b8101602085101562001e3e578190505b62001e5662001e4d8562001cec565b83018262001de7565b50505b505050565b600082821c905092915050565b600062001e7e6000198460080262001e5e565b1980831691505092915050565b600062001e99838362001e6b565b9150826002028217905092915050565b62001eb48262001685565b67ffffffffffffffff81111562001ed05762001ecf620013d2565b5b62001edc825462001aca565b62001ee982828562001e0e565b600060209050601f83116001811462001f21576000841562001f0c578287015190505b62001f18858262001e8b565b86555062001f88565b601f19841662001f318662001aff565b60005b8281101562001f5b5784890151825560018201915060208501945060208101905062001f34565b8683101562001f7b578489015162001f77601f89168262001e6b565b8355505b6001600288020188555050505b505050505050565b7f4e487b7100000000000000000000000000000000000000000000000000000000600052601160045260246000fd5b600062001fcc8262001519565b915062001fd98362001519565b925082820390508181111562001ff45762001ff362001f90565b5b92915050565b6000620020078262001519565b9150620020148362001519565b92508282019050808211156200202f576200202e62001f90565b5b92915050565b6000620020428262001519565b91506200204f8362001519565b92508282026200205f8162001519565b9150828204841483151762002079576200207862001f90565b5b5092915050565b7f536f6c6f20707565646520726563617267617220656c2073616c646f20676c6f60008201527f62616c20656c2061646d696e2064656c2073697374656d610000000000000000602082015250565b6000620020de60388362001690565b9150620020eb8262002080565b604082019050919050565b600060208201905081810360008301526200211181620020cf565b9050919050565b7f59612065786973746520756e6120656e74696461642061736f6369616461206160008201527f206573746120646972656363696f6e0000000000000000000000000000000000602082015250565b600062002176602f8362001690565b9150620021838262002118565b604082019050919050565b60006020820190508181036000830152620021a98162002167565b9050919050565b6000620021bd8262001685565b620021c9818562001a4f565b9350620021db818560208601620016a1565b80840191505092915050565b6000620021f58284620021b0565b915081905092915050565b7f59612065786973746520756e6120656e7469646164207265676973747261646160008201527f20636f6e20656c206e6f6d627265206461646f00000000000000000000000000602082015250565b60006200225e60338362001690565b91506200226b8262002200565b604082019050919050565b6000602082019050818103600083015262002291816200224f565b9050919050565b7f41706f72746163696f6e206e6f20737566696369656e74652e204c612061706f60008201527f72746163696f6e206d696e696d6120657320646520302c303120455448000000602082015250565b6000620022f6603d8362001690565b9150620023038262002298565b604082019050919050565b600060208201905081810360008301526200232981620022e7565b9050919050565b60006200233d8262001519565b91507fffffffffffffffffffffffffffffffffffffffffffffffffffffffffffffffff820362002372576200237162001f90565b5b60018201905091905056fe60a06040526129cc6080908152503480156200001a57600080fd5b5060405162002133380380620021338339818101604052810190620000409190620002d3565b336000806101000a81548173ffffffffffffffffffffffffffffffffffffffff021916908373ffffffffffffffffffffffffffffffffffffffff160217905550806002908162000091919062000584565b5081600160006101000a81548173ffffffffffffffffffffffffffffffffffffffff021916908373ffffffffffffffffffffffffffffffffffffffff16021790555050506200066b565b6000604051905090565b600080fd5b600080fd5b600073ffffffffffffffffffffffffffffffffffffffff82169050919050565b60006200011c82620000ef565b9050919050565b6200012e816200010f565b81146200013a57600080fd5b50565b6000815190506200014e8162000123565b92915050565b600080fd5b600080fd5b6000601f19601f8301169050919050565b7f4e487b7100000000000000000000000000000000000000000000000000000000600052604160045260246000fd5b620001a9826200015e565b810181811067ffffffffffffffff82111715620001cb57620001ca6200016f565b5b80604052505050565b6000620001e0620000db565b9050620001ee82826200019e565b919050565b600067ffffffffffffffff8211156200021157620002106200016f565b5b6200021c826200015e565b9050602081019050919050565b60005b83811015620002495780820151818401526020810190506200022c565b60008484015250505050565b60006200026c6200026684620001f3565b620001d4565b9050828152602081018484840111156200028b576200028a62000159565b5b6200029884828562000229565b509392505050565b600082601f830112620002b857620002b762000154565b5b8151620002ca84826020860162000255565b91505092915050565b60008060408385031215620002ed57620002ec620000e5565b5b6000620002fd858286016200013d565b925050602083015167ffffffffffffffff811115620003215762000320620000ea565b5b6200032f85828601620002a0565b9150509250929050565b600081519050919050565b7f4e487b7100000000000000000000000000000000000000000000000000000000600052602260045260246000fd5b600060028204905060018216806200038c57607f821691505b602082108103620003a257620003a162000344565b5b50919050565b60008190508160005260206000209050919050565b60006020601f8301049050919050565b600082821b905092915050565b6000600883026200040c7fffffffffffffffffffffffffffffffffffffffffffffffffffffffffffffffff82620003cd565b620004188683620003cd565b95508019841693508086168417925050509392505050565b6000819050919050565b6000819050919050565b6000620004656200045f620004598462000430565b6200043a565b62000430565b9050919050565b6000819050919050565b620004818362000444565b6200049962000490826200046c565b848454620003da565b825550505050565b600090565b620004b0620004a1565b620004bd81848462000476565b505050565b5b81811015620004e557620004d9600082620004a6565b600181019050620004c3565b5050565b601f8211156200053457620004fe81620003a8565b6200050984620003bd565b8101602085101562000519578190505b620005316200052885620003bd565b830182620004c2565b50505b505050565b600082821c905092915050565b6000620005596000198460080262000539565b1980831691505092915050565b600062000574838362000546565b9150826002028217905092915050565b6200058f8262000339565b67ffffffffffffffff811115620005ab57620005aa6200016f565b5b620005b7825462000373565b620005c4828285620004e9565b600060209050601f831160018114620005fc5760008415620005e7578287015190505b620005f3858262000566565b86555062000663565b601f1984166200060c86620003a8565b60005b8281101562000636578489015182556001820191506020850194506020810190506200060f565b8683101562000656578489015162000652601f89168262000546565b8355505b6001600288020188555050505b505050505050565b608051611aac6200068760003960006108e10152611aac6000f3fe6080604052600436106100745760003560e01c80636f9fb98a1161004e5780636f9fb98a146100df5780638e11d1551461010a5780639039ae2814610136578063f8433d84146101525761007b565b80632241eb661461007d5780633fff25a4146100a85780636be1cd1e146100b25761007b565b3661007b57005b005b34801561008957600080fd5b50610092610193565b60405161009f9190610ed9565b60405180910390f35b6100b0610495565b005b3480156100be57600080fd5b506100c7610570565b6040516100d693929190610f0a565b60405180910390f35b3480156100eb57600080fd5b506100f461058e565b6040516101019190610f41565b60405180910390f35b34801561011657600080fd5b5061011f610596565b60405161012d929190610f5c565b60405180910390f35b610150600480360381019061014b91906110fa565b6105a7565b005b34801561015e57600080fd5b5061017960048036038101906101749190611185565b610974565b60405161018a9594939291906111fc565b60405180910390f35b606060008054906101000a900473ffffffffffffffffffffffffffffffffffffffff1673ffffffffffffffffffffffffffffffffffffffff1663e7dd1ce6336040518263ffffffff1660e01b81526004016101ee91906112a5565b602060405180830381865afa15801561020b573d6000803e3d6000fd5b505050506040513d601f19601f8201168201806040525081019061022f91906112f8565b61026e576040517f08c379a0000000000000000000000000000000000000000000000000000000008152600401610265906113bd565b60405180910390fd5b6003805480602002602001604051908101604052809291908181526020016000905b8282101561048c57838290600052602060002090600502016040518060a00160405290816000820180546102c39061140c565b80601f01602080910402602001604051908101604052809291908181526020018280546102ef9061140c565b801561033c5780601f106103115761010080835404028352916020019161033c565b820191906000526020600020905b81548152906001019060200180831161031f57829003601f168201915b5050505050815260200160018201548152602001600282015481526020016003820180546103699061140c565b80601f01602080910402602001604051908101604052809291908181526020018280546103959061140c565b80156103e25780601f106103b7576101008083540402835291602001916103e2565b820191906000526020600020905b8154815290600101906020018083116103c557829003601f168201915b505050505081526020016004820180546103fb9061140c565b80601f01602080910402602001604051908101604052809291908181526020018280546104279061140c565b80156104745780601f1061044957610100808354040283529160200191610474565b820191906000526020600020905b81548152906001019060200180831161045757829003601f168201915b50505050508152505081526020019060010190610290565b50505050905090565b60008054906101000a900473ffffffffffffffffffffffffffffffffffffffff1673ffffffffffffffffffffffffffffffffffffffff1663e7dd1ce6336040518263ffffffff1660e01b81526004016104ee91906112a5565b602060405180830381865afa15801561050b573d6000803e3d6000fd5b505050506040513d601f19601f8201168201806040525081019061052f91906112f8565b61056e576040517f08c379a0000000000000000000000000000000000000000000000000000000008152600401610565906113bd565b60405180910390fd5b565b600080600060055492506006549150610587610ba4565b9050909192565b600047905090565b600080600654915060055490509091565b60005a905060008060009054906101000a900473ffffffffffffffffffffffffffffffffffffffff1673ffffffffffffffffffffffffffffffffffffffff166310fe472b336040518263ffffffff1660e01b815260040161060891906112a5565b600060405180830381865afa158015610625573d6000803e3d6000fd5b505050506040513d6000823e3d601f19601f8201168201806040525081019061064e91906114ad565b905060405160200161065f90611527565b6040516020818303038152906040528051906020012081604051602001610686919061156d565b60405160208183030381529060405280519060200120036106dc576040517f08c379a00000000000000000000000000000000000000000000000000000000081526004016106d3906115f6565b60405180910390fd5b6106e533610c18565b610724576040517f08c379a000000000000000000000000000000000000000000000000000000000815260040161071b90611688565b60405180910390fd5b60036040518060a00160405280838152602001428152602001878152602001868152602001858152509080600181540180825580915050600190039060005260206000209060050201600090919091909150600082015181600001908161078b9190611854565b50602082015181600101556040820151816002015560608201518160030190816107b59190611854565b5060808201518160040190816107cb9190611854565b50505060016005546107dd9190611955565b600460003373ffffffffffffffffffffffffffffffffffffffff1673ffffffffffffffffffffffffffffffffffffffff1681526020019081526020016000208190555060008054906101000a900473ffffffffffffffffffffffffffffffffffffffff1673ffffffffffffffffffffffffffffffffffffffff1663a8ce79b26040518163ffffffff1660e01b8152600401600060405180830381600087803b15801561088857600080fd5b505af115801561089c573d6000803e3d6000fd5b50505050600560008154809291906108b390611989565b9190505550846006546108c69190611955565b6006819055505060005a826108db91906119d1565b905060007f00000000000000000000000000000000000000000000000000000000000000003a6152088461090f9190611955565b6109199190611a05565b6109239190611955565b90503373ffffffffffffffffffffffffffffffffffffffff166108fc829081150290604051600060405180830381858888f1935050505015801561096b573d6000803e3d6000fd5b50505050505050565b606060008060608060006003878154811061099257610991611a47565b5b90600052602060002090600502016040518060a00160405290816000820180546109bb9061140c565b80601f01602080910402602001604051908101604052809291908181526020018280546109e79061140c565b8015610a345780601f10610a0957610100808354040283529160200191610a34565b820191906000526020600020905b815481529060010190602001808311610a1757829003601f168201915b505050505081526020016001820154815260200160028201548152602001600382018054610a619061140c565b80601f0160208091040260200160405190810160405280929190818152602001828054610a8d9061140c565b8015610ada5780601f10610aaf57610100808354040283529160200191610ada565b820191906000526020600020905b815481529060010190602001808311610abd57829003601f168201915b50505050508152602001600482018054610af39061140c565b80601f0160208091040260200160405190810160405280929190818152602001828054610b1f9061140c565b8015610b6c5780601f10610b4157610100808354040283529160200191610b6c565b820191906000526020600020905b815481529060010190602001808311610b4f57829003601f168201915b505050505081525050905080600001519550806020015194508060400151935080606001519250806080015191505091939590929450565b6000806000905060005b600380549050811015610c1057610be960038281548110610bd257610bd1611a47565b5b906000526020600020906005020160010154610cd0565b15610bfd578180610bf990611989565b9250505b8080610c0890611989565b915050610bae565b508091505090565b6000600190506000600460008473ffffffffffffffffffffffffffffffffffffffff1673ffffffffffffffffffffffffffffffffffffffff1681526020019081526020016000205490506000600380549050118015610c78575060008114155b15610cca5760006003600183610c8e91906119d1565b81548110610c9f57610c9e611a47565b5b90600052602060002090600502016001015490506000811115610cc857610cc581610cd0565b92505b505b50919050565b600062ed4e008242610ce291906119d1565b119050919050565b600081519050919050565b600082825260208201905092915050565b6000819050602082019050919050565b600081519050919050565b600082825260208201905092915050565b60005b83811015610d50578082015181840152602081019050610d35565b60008484015250505050565b6000601f19601f8301169050919050565b6000610d7882610d16565b610d828185610d21565b9350610d92818560208601610d32565b610d9b81610d5c565b840191505092915050565b6000819050919050565b610db981610da6565b82525050565b600060a0830160008301518482036000860152610ddc8282610d6d565b9150506020830151610df16020860182610db0565b506040830151610e046040860182610db0565b5060608301518482036060860152610e1c8282610d6d565b91505060808301518482036080860152610e368282610d6d565b9150508091505092915050565b6000610e4f8383610dbf565b905092915050565b6000602082019050919050565b6000610e6f82610cea565b610e798185610cf5565b935083602082028501610e8b85610d06565b8060005b85811015610ec75784840389528151610ea88582610e43565b9450610eb383610e57565b925060208a01995050600181019050610e8f565b50829750879550505050505092915050565b60006020820190508181036000830152610ef38184610e64565b905092915050565b610f0481610da6565b82525050565b6000606082019050610f1f6000830186610efb565b610f2c6020830185610efb565b610f396040830184610efb565b949350505050565b6000602082019050610f566000830184610efb565b92915050565b6000604082019050610f716000830185610efb565b610f7e6020830184610efb565b9392505050565b6000604051905090565b600080fd5b600080fd5b610fa281610da6565b8114610fad57600080fd5b50565b600081359050610fbf81610f99565b92915050565b600080fd5b600080fd5b7f4e487b7100000000000000000000000000000000000000000000000000000000600052604160045260246000fd5b61100782610d5c565b810181811067ffffffffffffffff8211171561102657611025610fcf565b5b80604052505050565b6000611039610f85565b90506110458282610ffe565b919050565b600067ffffffffffffffff82111561106557611064610fcf565b5b61106e82610d5c565b9050602081019050919050565b82818337600083830152505050565b600061109d6110988461104a565b61102f565b9050828152602081018484840111156110b9576110b8610fca565b5b6110c484828561107b565b509392505050565b600082601f8301126110e1576110e0610fc5565b5b81356110f184826020860161108a565b91505092915050565b60008060006060848603121561111357611112610f8f565b5b600061112186828701610fb0565b935050602084013567ffffffffffffffff81111561114257611141610f94565b5b61114e868287016110cc565b925050604084013567ffffffffffffffff81111561116f5761116e610f94565b5b61117b868287016110cc565b9150509250925092565b60006020828403121561119b5761119a610f8f565b5b60006111a984828501610fb0565b91505092915050565b600082825260208201905092915050565b60006111ce82610d16565b6111d881856111b2565b93506111e8818560208601610d32565b6111f181610d5c565b840191505092915050565b600060a082019050818103600083015261121681886111c3565b90506112256020830187610efb565b6112326040830186610efb565b818103606083015261124481856111c3565b9050818103608083015261125881846111c3565b90509695505050505050565b600073ffffffffffffffffffffffffffffffffffffffff82169050919050565b600061128f82611264565b9050919050565b61129f81611284565b82525050565b60006020820190506112ba6000830184611296565b92915050565b60008115159050919050565b6112d5816112c0565b81146112e057600080fd5b50565b6000815190506112f2816112cc565b92915050565b60006020828403121561130e5761130d610f8f565b5b600061131c848285016112e3565b91505092915050565b7f4f7065726163696f6e207065726d6974696461206578636c75736976616d656e60008201527f74652061206c6120656e74696461642070726f70696574617269612064656c2060208201527f636f6e747261746f000000000000000000000000000000000000000000000000604082015250565b60006113a76048836111b2565b91506113b282611325565b606082019050919050565b600060208201905081810360008301526113d68161139a565b9050919050565b7f4e487b7100000000000000000000000000000000000000000000000000000000600052602260045260246000fd5b6000600282049050600182168061142457607f821691505b602082108103611437576114366113dd565b5b50919050565b600061145061144b8461104a565b61102f565b90508281526020810184848401111561146c5761146b610fca565b5b611477848285610d32565b509392505050565b600082601f83011261149457611493610fc5565b5b81516114a484826020860161143d565b91505092915050565b6000602082840312156114c3576114c2610f8f565b5b600082015167ffffffffffffffff8111156114e1576114e0610f94565b5b6114ed8482850161147f565b91505092915050565b600081905092915050565b50565b60006115116000836114f6565b915061151c82611501565b600082019050919050565b600061153282611504565b9150819050919050565b600061154782610d16565b61155181856114f6565b9350611561818560208601610d32565b80840191505092915050565b6000611579828461153c565b915081905092915050565b7f4e6f206573207573756172696f207265676973747261646f207061726120766160008201527f6c6f726172000000000000000000000000000000000000000000000000000000602082015250565b60006115e06025836111b2565b91506115eb82611584565b604082019050919050565b6000602082019050818103600083015261160f816115d3565b9050919050565b7f48612076616c6f7261646f206573746120656e74696461642068616365206d6560008201527f6e6f732064652036206d65736573000000000000000000000000000000000000602082015250565b6000611672602e836111b2565b915061167d82611616565b604082019050919050565b600060208201905081810360008301526116a181611665565b9050919050565b60008190508160005260206000209050919050565b60006020601f8301049050919050565b600082821b905092915050565b60006008830261170a7fffffffffffffffffffffffffffffffffffffffffffffffffffffffffffffffff826116cd565b61171486836116cd565b95508019841693508086168417925050509392505050565b6000819050919050565b600061175161174c61174784610da6565b61172c565b610da6565b9050919050565b6000819050919050565b61176b83611736565b61177f61177782611758565b8484546116da565b825550505050565b600090565b611794611787565b61179f818484611762565b505050565b5b818110156117c3576117b860008261178c565b6001810190506117a5565b5050565b601f821115611808576117d9816116a8565b6117e2846116bd565b810160208510156117f1578190505b6118056117fd856116bd565b8301826117a4565b50505b505050565b600082821c905092915050565b600061182b6000198460080261180d565b1980831691505092915050565b6000611844838361181a565b9150826002028217905092915050565b61185d82610d16565b67ffffffffffffffff81111561187657611875610fcf565b5b611880825461140c565b61188b8282856117c7565b600060209050601f8311600181146118be57600084156118ac578287015190505b6118b68582611838565b86555061191e565b601f1984166118cc866116a8565b60005b828110156118f4578489015182556001820191506020850194506020810190506118cf565b86831015611911578489015161190d601f89168261181a565b8355505b6001600288020188555050505b505050505050565b7f4e487b7100000000000000000000000000000000000000000000000000000000600052601160045260246000fd5b600061196082610da6565b915061196b83610da6565b925082820190508082111561198357611982611926565b5b92915050565b600061199482610da6565b91507fffffffffffffffffffffffffffffffffffffffffffffffffffffffffffffffff82036119c6576119c5611926565b5b600182019050919050565b60006119dc82610da6565b91506119e783610da6565b92508282039050818111156119ff576119fe611926565b5b92915050565b6000611a1082610da6565b9150611a1b83610da6565b9250828202611a2981610da6565b91508282048414831517611a4057611a3f611926565b5b5092915050565b7f4e487b7100000000000000000000000000000000000000000000000000000000600052603260045260246000fdfea26469706673582212206cc4760e1eb1cdeec4f08d62cf59942f078fedc12a85d560139d6d1512fde96364736f6c63430008110033a264697066735822122046fe4f8da8192dc33cd427f532c91276125934a4cac61ab7f6baa8d23e831b0e64736f6c63430008110033",
  "immutableReferences": {
    "44": [
      {
        "length": 32,
        "start": 2995
      }
    ],
    "47": [
      {
        "length": 32,
        "start": 3391
      }
    ],
    "875": [
      {
        "length": 32,
        "start": 1501
      }
    ]
  },
  "source": "// SPDX-License-Identifier: UNLICENSED\npragma solidity ^0.8.17;\n\nimport './entidad.sol' ;\nimport './freeForUser.sol' ;\n\ncontract Core is FreeForUser{ \n    \n    struct Usuario {\n        string usrName ;\n        string nameCompleto;\n        uint fechaNac;\n    }\n\n    mapping(address => string) usrLogin ;\n    mapping(address => string) entLogin ;\n    mapping(address => Usuario) strUsuarios ;\n    mapping(string => address) conEntidades ;\n    string[] entList ;\n    address admin ;\n    uint totalUsr ;\n    uint totalRes ;\n  \n    uint immutable MIN_APORT_ADMIN = 100000000000000000 ;\n    uint immutable MIN_APORT_ENT = 10000000000000000 ;\n    uint immutable COMISION = 500000 ;\n\n    modifier onlyAdmin(){\n        require(msg.sender == admin, \"Solo puede recargar el saldo global el admin del sistema\") ;\n        _ ;\n    }\n    \n    constructor() payable{\n        require(msg.value >= MIN_APORT_ADMIN, \"Aportacion no suficiente. La aportacion inicial debe ser superior a 0,1 ETH\") ;\n        admin = msg.sender ;\n    }\n\n    function addNuevoUsuario(string memory usrName, string memory nombre, uint fechaNac) external payable devolverFee{\n        require(keccak256(abi.encodePacked(usrLogin[msg.sender])) == keccak256(abi.encodePacked(\"\")), \"Ya existe un usuario asociado a esta direccion\") ;\n        require(strUsuarios[msg.sender].fechaNac == 0, \"Ya existe dicho nombre de usuario\") ;\n        usrLogin[msg.sender] = usrName ;\n        strUsuarios[msg.sender].usrName = usrName ;\n        strUsuarios[msg.sender].nameCompleto = nombre ;\n        strUsuarios[msg.sender].fechaNac = fechaNac ;\n    }\n    \n    function addNuevaEntidad(string memory nombre) external payable{\n        require(keccak256(abi.encodePacked(entLogin[msg.sender])) == keccak256(abi.encodePacked(\"\")), \"Ya existe una entidad asociada a esta direccion\") ;\n        require(conEntidades[nombre] == address(0), \"Ya existe una entidad registrada con el nombre dado\") ;\n        require(msg.value >= MIN_APORT_ENT, \"Aportacion no suficiente. La aportacion minima es de 0,01 ETH\") ;\n        entLogin[msg.sender] = nombre ;\n        address direccion = address(new Entidad(msg.sender, nombre));\n        conEntidades[nombre] = direccion ;\n        entList.push(nombre);\n        uint saldo = msg.value - COMISION ;\n        payable(direccion).transfer(saldo) ;\n    }\n    \n    function getDatosUsuario() external view returns(string memory usrName, string memory nameCompleto, uint fechaNac){\n\t\tUsuario memory usr =  strUsuarios[msg.sender] ;\n        usrName = usr.usrName ;\n        nameCompleto = usr.nameCompleto ;\n        fechaNac = usr.fechaNac ; \n    }\n\n    function cargarSaldoGlobal() external payable onlyAdmin{\n    }\n    \n    function getContratoEntAddress() public view returns(address dirContrato, string memory _marca){\n        _marca = entLogin[msg.sender] ;\n        dirContrato = getContratoEnt(_marca) ;\n    }\n\n    function getContratoEnt(string memory nombre) public view returns(address dirContrato){\n        dirContrato = conEntidades[nombre] ;\n    }\n\n    function isRegistered() external view  returns(bool registered, string memory tipo){\n        registered = true ;\n        if(keccak256(abi.encodePacked(usrLogin[msg.sender])) != keccak256(abi.encodePacked(\"\")))\n            tipo = \"usuario\" ;\n        else if(keccak256(abi.encodePacked(entLogin[msg.sender])) != keccak256(abi.encodePacked(\"\")))\n            tipo = \"entidad\" ;\n        else if(msg.sender == admin)\n            tipo = \"admin\" ;\n        else\n            registered = false ;\n    }\n\n    function getUserNameByAddress(address sender) external view returns(string memory usrName){\n        usrName = usrLogin[sender] ;\n    }\n\n    function getEntidades() external view returns(string[] memory entidades){\n        entidades = entList  ;\n    }\n\n    function esEntidadContr(address wallet) external view returns(bool _esEntidadContr){\n        _esEntidadContr = conEntidades[entLogin[wallet]] == msg.sender ;\n    }\n\n    function incRes() external{\n        totalRes++ ;\n    }\n\n    function getMetricasSistema() external view onlyAdmin returns(uint totalUsuarios, uint totalEntidades, uint _totalRes){\n\t\ttotalUsuarios = totalUsr ;\n\t\ttotalEntidades = entList.length ;\n        _totalRes = totalRes ;\n    }\n\n    function getContractBalance() public view onlyAdmin returns(uint balance){\n        balance = address(this).balance;\n    }\n    \n}",
  "sourcePath": "/Users/alvarojimenez/Desktop/Master/ProyectoEthereum/dev/reseg_final/contracts/core.sol",
  "compiler": {
    "name": "solc",
    "version": "0.8.17+commit.8df45f5f.Emscripten.clang"
  },
  "schemaVersion": "3.4.11",
  "updatedAt": "2023-03-28T17:53:50.357Z",
  "networkType": "ethereum",
  "devdoc": {
    "kind": "dev",
    "methods": {},
    "version": 1
  },
  "userdoc": {
    "kind": "user",
    "methods": {},
    "version": 1
  }
}