{
  "contractName": "Entidad",
  "abi": [
    {
      "inputs": [
        {
          "internalType": "string",
          "name": "_nombre",
          "type": "string"
        }
      ],
      "stateMutability": "nonpayable",
      "type": "constructor"
    },
    {
      "stateMutability": "payable",
      "type": "fallback"
    },
    {
      "stateMutability": "payable",
      "type": "receive"
    },
    {
      "inputs": [
        {
          "internalType": "uint256",
          "name": "_val",
          "type": "uint256"
        },
        {
          "internalType": "string",
          "name": "_titulo",
          "type": "string"
        },
        {
          "internalType": "string",
          "name": "_cuerpo",
          "type": "string"
        }
      ],
      "name": "valorar",
      "outputs": [],
      "stateMutability": "payable",
      "type": "function"
    },
    {
      "inputs": [],
      "name": "recargarSaldo",
      "outputs": [],
      "stateMutability": "payable",
      "type": "function"
    },
    {
      "inputs": [],
      "name": "getMetricas",
      "outputs": [
        {
          "internalType": "uint256",
          "name": "_totalRes",
          "type": "uint256"
        },
        {
          "internalType": "uint256",
          "name": "_sumaVal",
          "type": "uint256"
        },
        {
          "internalType": "uint256",
          "name": "_totalUltRes",
          "type": "uint256"
        }
      ],
      "stateMutability": "view",
      "type": "function"
    },
    {
      "inputs": [],
      "name": "getPromedioVal",
      "outputs": [
        {
          "internalType": "uint256",
          "name": "_sumaVal",
          "type": "uint256"
        },
        {
          "internalType": "uint256",
          "name": "_totalRes",
          "type": "uint256"
        }
      ],
      "stateMutability": "view",
      "type": "function"
    },
    {
      "inputs": [],
      "name": "getResenias",
      "outputs": [
        {
          "components": [
            {
              "internalType": "string",
              "name": "autor",
              "type": "string"
            },
            {
              "internalType": "uint256",
              "name": "fecha",
              "type": "uint256"
            },
            {
              "internalType": "uint256",
              "name": "valoracion",
              "type": "uint256"
            },
            {
              "internalType": "string",
              "name": "titulo",
              "type": "string"
            },
            {
              "internalType": "string",
              "name": "cuerpo",
              "type": "string"
            }
          ],
          "internalType": "struct Entidad.Resenia[]",
          "name": "resList",
          "type": "tuple[]"
        }
      ],
      "stateMutability": "view",
      "type": "function"
    },
    {
      "inputs": [],
      "name": "getContractBalance",
      "outputs": [
        {
          "internalType": "uint256",
          "name": "balance",
          "type": "uint256"
        }
      ],
      "stateMutability": "view",
      "type": "function"
    }
  ],
  "bytecode": "0x60a06040526129cc6080908152503480156200001a57600080fd5b5060405162001ec838038062001ec883398181016040528101906200004091906200022c565b336000806101000a81548173ffffffffffffffffffffffffffffffffffffffff021916908373ffffffffffffffffffffffffffffffffffffffff1602179055508060019081620000919190620004c8565b5050620005af565b6000604051905090565b600080fd5b600080fd5b600080fd5b600080fd5b6000601f19601f8301169050919050565b7f4e487b7100000000000000000000000000000000000000000000000000000000600052604160045260246000fd5b6200010282620000b7565b810181811067ffffffffffffffff82111715620001245762000123620000c8565b5b80604052505050565b60006200013962000099565b9050620001478282620000f7565b919050565b600067ffffffffffffffff8211156200016a5762000169620000c8565b5b6200017582620000b7565b9050602081019050919050565b60005b83811015620001a257808201518184015260208101905062000185565b60008484015250505050565b6000620001c5620001bf846200014c565b6200012d565b905082815260208101848484011115620001e457620001e3620000b2565b5b620001f184828562000182565b509392505050565b600082601f830112620002115762000210620000ad565b5b815162000223848260208601620001ae565b91505092915050565b600060208284031215620002455762000244620000a3565b5b600082015167ffffffffffffffff811115620002665762000265620000a8565b5b6200027484828501620001f9565b91505092915050565b600081519050919050565b7f4e487b7100000000000000000000000000000000000000000000000000000000600052602260045260246000fd5b60006002820490506001821680620002d057607f821691505b602082108103620002e657620002e562000288565b5b50919050565b60008190508160005260206000209050919050565b60006020601f8301049050919050565b600082821b905092915050565b600060088302620003507fffffffffffffffffffffffffffffffffffffffffffffffffffffffffffffffff8262000311565b6200035c868362000311565b95508019841693508086168417925050509392505050565b6000819050919050565b6000819050919050565b6000620003a9620003a36200039d8462000374565b6200037e565b62000374565b9050919050565b6000819050919050565b620003c58362000388565b620003dd620003d482620003b0565b8484546200031e565b825550505050565b600090565b620003f4620003e5565b62000401818484620003ba565b505050565b5b8181101562000429576200041d600082620003ea565b60018101905062000407565b5050565b601f82111562000478576200044281620002ec565b6200044d8462000301565b810160208510156200045d578190505b620004756200046c8562000301565b83018262000406565b50505b505050565b600082821c905092915050565b60006200049d600019846008026200047d565b1980831691505092915050565b6000620004b883836200048a565b9150826002028217905092915050565b620004d3826200027d565b67ffffffffffffffff811115620004ef57620004ee620000c8565b5b620004fb8254620002b7565b620005088282856200042d565b600060209050601f8311600181146200054057600084156200052b578287015190505b620005378582620004aa565b865550620005a7565b601f1984166200055086620002ec565b60005b828110156200057a5784890151825560018201915060208501945060208101905062000553565b868310156200059a578489015162000596601f8916826200048a565b8355505b6001600288020188555050505b505050505050565b6080516118fd620005cb6000396000610a3901526118fd6000f3fe6080604052600436106100595760003560e01c80632241eb66146100625780633fff25a41461008d5780636be1cd1e146100975780636f9fb98a146100c45780638e11d155146100ef5780639039ae281461011b57610060565b3661006057005b005b34801561006e57600080fd5b50610077610137565b6040516100849190610df8565b60405180910390f35b610095610439565b005b3480156100a357600080fd5b506100ac610514565b6040516100bb93929190610e29565b60405180910390f35b3480156100d057600080fd5b506100d961060c565b6040516100e69190610e60565b60405180910390f35b3480156100fb57600080fd5b506101046106ee565b604051610112929190610e7b565b60405180910390f35b61013560048036038101906101309190611019565b6106ff565b005b606060008054906101000a900473ffffffffffffffffffffffffffffffffffffffff1673ffffffffffffffffffffffffffffffffffffffff1663e7dd1ce6336040518263ffffffff1660e01b815260040161019291906110e5565b602060405180830381865afa1580156101af573d6000803e3d6000fd5b505050506040513d601f19601f820116820180604052508101906101d39190611138565b610212576040517f08c379a00000000000000000000000000000000000000000000000000000000081526004016102099061120e565b60405180910390fd5b6002805480602002602001604051908101604052809291908181526020016000905b8282101561043057838290600052602060002090600502016040518060a00160405290816000820180546102679061125d565b80601f01602080910402602001604051908101604052809291908181526020018280546102939061125d565b80156102e05780601f106102b5576101008083540402835291602001916102e0565b820191906000526020600020905b8154815290600101906020018083116102c357829003601f168201915b50505050508152602001600182015481526020016002820154815260200160038201805461030d9061125d565b80601f01602080910402602001604051908101604052809291908181526020018280546103399061125d565b80156103865780601f1061035b57610100808354040283529160200191610386565b820191906000526020600020905b81548152906001019060200180831161036957829003601f168201915b5050505050815260200160048201805461039f9061125d565b80601f01602080910402602001604051908101604052809291908181526020018280546103cb9061125d565b80156104185780601f106103ed57610100808354040283529160200191610418565b820191906000526020600020905b8154815290600101906020018083116103fb57829003601f168201915b50505050508152505081526020019060010190610234565b50505050905090565b60008054906101000a900473ffffffffffffffffffffffffffffffffffffffff1673ffffffffffffffffffffffffffffffffffffffff1663e7dd1ce6336040518263ffffffff1660e01b815260040161049291906110e5565b602060405180830381865afa1580156104af573d6000803e3d6000fd5b505050506040513d601f19601f820116820180604052508101906104d39190611138565b610512576040517f08c379a00000000000000000000000000000000000000000000000000000000081526004016105099061120e565b60405180910390fd5b565b60008060008060009054906101000a900473ffffffffffffffffffffffffffffffffffffffff1673ffffffffffffffffffffffffffffffffffffffff1663e7dd1ce6336040518263ffffffff1660e01b815260040161057391906110e5565b602060405180830381865afa158015610590573d6000803e3d6000fd5b505050506040513d601f19601f820116820180604052508101906105b49190611138565b6105f3576040517f08c379a00000000000000000000000000000000000000000000000000000000081526004016105ea9061120e565b60405180910390fd5b60045492506005549150610605610acc565b9050909192565b60008060009054906101000a900473ffffffffffffffffffffffffffffffffffffffff1673ffffffffffffffffffffffffffffffffffffffff1663e7dd1ce6336040518263ffffffff1660e01b815260040161066891906110e5565b602060405180830381865afa158015610685573d6000803e3d6000fd5b505050506040513d601f19601f820116820180604052508101906106a99190611138565b6106e8576040517f08c379a00000000000000000000000000000000000000000000000000000000081526004016106df9061120e565b60405180910390fd5b47905090565b600080600554915060045490509091565b60005a905060008060009054906101000a900473ffffffffffffffffffffffffffffffffffffffff1673ffffffffffffffffffffffffffffffffffffffff166310fe472b336040518263ffffffff1660e01b815260040161076091906110e5565b600060405180830381865afa15801561077d573d6000803e3d6000fd5b505050506040513d6000823e3d601f19601f820116820180604052508101906107a691906112fe565b90506040516020016107b790611378565b60405160208183030381529060405280519060200120816040516020016107de91906113be565b6040516020818303038152906040528051906020012003610834576040517f08c379a000000000000000000000000000000000000000000000000000000000815260040161082b90611447565b60405180910390fd5b61083d33610b40565b61087c576040517f08c379a0000000000000000000000000000000000000000000000000000000008152600401610873906114d9565b60405180910390fd5b60026040518060a0016040528083815260200142815260200187815260200186815260200185815250908060018154018082558091505060019003906000526020600020906005020160009091909190915060008201518160000190816108e391906116a5565b506020820151816001015560408201518160020155606082015181600301908161090d91906116a5565b50608082015181600401908161092391906116a5565b505050600160045461093591906117a6565b600360003373ffffffffffffffffffffffffffffffffffffffff1673ffffffffffffffffffffffffffffffffffffffff1681526020019081526020016000208190555060008054906101000a900473ffffffffffffffffffffffffffffffffffffffff1673ffffffffffffffffffffffffffffffffffffffff1663a8ce79b26040518163ffffffff1660e01b8152600401600060405180830381600087803b1580156109e057600080fd5b505af11580156109f4573d6000803e3d6000fd5b5050505060046000815480929190610a0b906117da565b919050555084600554610a1e91906117a6565b6005819055505060005a82610a339190611822565b905060007f00000000000000000000000000000000000000000000000000000000000000003a61520884610a6791906117a6565b610a719190611856565b610a7b91906117a6565b90503373ffffffffffffffffffffffffffffffffffffffff166108fc829081150290604051600060405180830381858888f19350505050158015610ac3573d6000803e3d6000fd5b50505050505050565b6000806000905060005b600280549050811015610b3857610b1160028281548110610afa57610af9611898565b5b906000526020600020906005020160010154610bef565b15610b25578180610b21906117da565b9250505b8080610b30906117da565b915050610ad6565b508091505090565b6000600190506000600360008473ffffffffffffffffffffffffffffffffffffffff1673ffffffffffffffffffffffffffffffffffffffff1681526020019081526020016000205490506000600280549050118015610ba0575060008114155b15610be95760006002600183610bb69190611822565b81548110610bc757610bc6611898565b5b9060005260206000209060050201600101549050610be481610bef565b159250505b50919050565b600062ed4e008242610c019190611822565b109050919050565b600081519050919050565b600082825260208201905092915050565b6000819050602082019050919050565b600081519050919050565b600082825260208201905092915050565b60005b83811015610c6f578082015181840152602081019050610c54565b60008484015250505050565b6000601f19601f8301169050919050565b6000610c9782610c35565b610ca18185610c40565b9350610cb1818560208601610c51565b610cba81610c7b565b840191505092915050565b6000819050919050565b610cd881610cc5565b82525050565b600060a0830160008301518482036000860152610cfb8282610c8c565b9150506020830151610d106020860182610ccf565b506040830151610d236040860182610ccf565b5060608301518482036060860152610d3b8282610c8c565b91505060808301518482036080860152610d558282610c8c565b9150508091505092915050565b6000610d6e8383610cde565b905092915050565b6000602082019050919050565b6000610d8e82610c09565b610d988185610c14565b935083602082028501610daa85610c25565b8060005b85811015610de65784840389528151610dc78582610d62565b9450610dd283610d76565b925060208a01995050600181019050610dae565b50829750879550505050505092915050565b60006020820190508181036000830152610e128184610d83565b905092915050565b610e2381610cc5565b82525050565b6000606082019050610e3e6000830186610e1a565b610e4b6020830185610e1a565b610e586040830184610e1a565b949350505050565b6000602082019050610e756000830184610e1a565b92915050565b6000604082019050610e906000830185610e1a565b610e9d6020830184610e1a565b9392505050565b6000604051905090565b600080fd5b600080fd5b610ec181610cc5565b8114610ecc57600080fd5b50565b600081359050610ede81610eb8565b92915050565b600080fd5b600080fd5b7f4e487b7100000000000000000000000000000000000000000000000000000000600052604160045260246000fd5b610f2682610c7b565b810181811067ffffffffffffffff82111715610f4557610f44610eee565b5b80604052505050565b6000610f58610ea4565b9050610f648282610f1d565b919050565b600067ffffffffffffffff821115610f8457610f83610eee565b5b610f8d82610c7b565b9050602081019050919050565b82818337600083830152505050565b6000610fbc610fb784610f69565b610f4e565b905082815260208101848484011115610fd857610fd7610ee9565b5b610fe3848285610f9a565b509392505050565b600082601f83011261100057610fff610ee4565b5b8135611010848260208601610fa9565b91505092915050565b60008060006060848603121561103257611031610eae565b5b600061104086828701610ecf565b935050602084013567ffffffffffffffff81111561106157611060610eb3565b5b61106d86828701610feb565b925050604084013567ffffffffffffffff81111561108e5761108d610eb3565b5b61109a86828701610feb565b9150509250925092565b600073ffffffffffffffffffffffffffffffffffffffff82169050919050565b60006110cf826110a4565b9050919050565b6110df816110c4565b82525050565b60006020820190506110fa60008301846110d6565b92915050565b60008115159050919050565b61111581611100565b811461112057600080fd5b50565b6000815190506111328161110c565b92915050565b60006020828403121561114e5761114d610eae565b5b600061115c84828501611123565b91505092915050565b600082825260208201905092915050565b7f4f7065726163696f6e207065726d6974696461206578636c75736976616d656e60008201527f74652061206c6120656e74696461642070726f70696574617269612064656c2060208201527f636f6e747261746f000000000000000000000000000000000000000000000000604082015250565b60006111f8604883611165565b915061120382611176565b606082019050919050565b60006020820190508181036000830152611227816111eb565b9050919050565b7f4e487b7100000000000000000000000000000000000000000000000000000000600052602260045260246000fd5b6000600282049050600182168061127557607f821691505b6020821081036112885761128761122e565b5b50919050565b60006112a161129c84610f69565b610f4e565b9050828152602081018484840111156112bd576112bc610ee9565b5b6112c8848285610c51565b509392505050565b600082601f8301126112e5576112e4610ee4565b5b81516112f584826020860161128e565b91505092915050565b60006020828403121561131457611313610eae565b5b600082015167ffffffffffffffff81111561133257611331610eb3565b5b61133e848285016112d0565b91505092915050565b600081905092915050565b50565b6000611362600083611347565b915061136d82611352565b600082019050919050565b600061138382611355565b9150819050919050565b600061139882610c35565b6113a28185611347565b93506113b2818560208601610c51565b80840191505092915050565b60006113ca828461138d565b915081905092915050565b7f4e6f206573207573756172696f207265676973747261646f207061726120766160008201527f6c6f726172000000000000000000000000000000000000000000000000000000602082015250565b6000611431602583611165565b915061143c826113d5565b604082019050919050565b6000602082019050818103600083015261146081611424565b9050919050565b7f48612076616c6f7261646f206573746120656e74696461642068616365206d6560008201527f6e6f732064652036206d65736573000000000000000000000000000000000000602082015250565b60006114c3602e83611165565b91506114ce82611467565b604082019050919050565b600060208201905081810360008301526114f2816114b6565b9050919050565b60008190508160005260206000209050919050565b60006020601f8301049050919050565b600082821b905092915050565b60006008830261155b7fffffffffffffffffffffffffffffffffffffffffffffffffffffffffffffffff8261151e565b611565868361151e565b95508019841693508086168417925050509392505050565b6000819050919050565b60006115a261159d61159884610cc5565b61157d565b610cc5565b9050919050565b6000819050919050565b6115bc83611587565b6115d06115c8826115a9565b84845461152b565b825550505050565b600090565b6115e56115d8565b6115f08184846115b3565b505050565b5b81811015611614576116096000826115dd565b6001810190506115f6565b5050565b601f8211156116595761162a816114f9565b6116338461150e565b81016020851015611642578190505b61165661164e8561150e565b8301826115f5565b50505b505050565b600082821c905092915050565b600061167c6000198460080261165e565b1980831691505092915050565b6000611695838361166b565b9150826002028217905092915050565b6116ae82610c35565b67ffffffffffffffff8111156116c7576116c6610eee565b5b6116d1825461125d565b6116dc828285611618565b600060209050601f83116001811461170f57600084156116fd578287015190505b6117078582611689565b86555061176f565b601f19841661171d866114f9565b60005b8281101561174557848901518255600182019150602085019450602081019050611720565b86831015611762578489015161175e601f89168261166b565b8355505b6001600288020188555050505b505050505050565b7f4e487b7100000000000000000000000000000000000000000000000000000000600052601160045260246000fd5b60006117b182610cc5565b91506117bc83610cc5565b92508282019050808211156117d4576117d3611777565b5b92915050565b60006117e582610cc5565b91507fffffffffffffffffffffffffffffffffffffffffffffffffffffffffffffffff820361181757611816611777565b5b600182019050919050565b600061182d82610cc5565b915061183883610cc5565b92508282039050818111156118505761184f611777565b5b92915050565b600061186182610cc5565b915061186c83610cc5565b925082820261187a81610cc5565b9150828204841483151761189157611890611777565b5b5092915050565b7f4e487b7100000000000000000000000000000000000000000000000000000000600052603260045260246000fdfea26469706673582212203bb880b05e5b7346766cbaf02a5975eff4ccce7fc787c94ae52d36e75287ffa964736f6c63430008110033",
  "immutableReferences": {
    "817": [
      {
        "length": 32,
        "start": 2617
      }
    ]
  },
  "source": "// SPDX-License-Identifier: UNLICENSED\npragma solidity ^0.8.17;\n\nimport './core.sol' ;\nimport './freeForUser.sol' ;\n\ncontract Entidad is FreeForUser{  \n    \n    struct Resenia {\n        string autor ;\n        uint fecha ;\n        uint valoracion ;\n        string titulo ;\n        string cuerpo ;\n    }\n\n    Core coreContract ;\n    string marca ;\n    Resenia[] resenias ;\n    mapping(address => uint) resXUsr ;\n\n    uint totalRes ;\n    uint sumaVal ;\n\n    modifier onlyEntidad(){\n        require(coreContract.esEntidadContr(msg.sender), \"Operacion permitida exclusivamente a la entidad propietaria del contrato\") ;\n        _ ;\n    }\n\n    constructor(string memory _nombre){\n        coreContract = Core(msg.sender) ;\n        marca = _nombre ;\n    }\n\n    receive() external payable {\n    }\n\n    fallback() external payable {\n    }\n\n    function valorar(uint _val, string memory _titulo, string memory _cuerpo) external payable devolverFee{\n        string memory usrName = coreContract.getUserNameByAddress(msg.sender) ;\n        require(keccak256(abi.encodePacked(usrName)) != keccak256(abi.encodePacked(\"\")), \"No es usuario registrado para valorar\") ;\n        require(enPlazo(msg.sender), \"Ha valorado esta entidad hace menos de 6 meses\") ;\n        resenias.push(Resenia(usrName, block.timestamp, _val, _titulo, _cuerpo));\n        resXUsr[msg.sender] = totalRes + 1 ; //No guardar en index = 0\n        coreContract.incRes() ;\n        totalRes++ ;\n        sumaVal = sumaVal + _val ;\n    }\n\n    function recargarSaldo() external payable onlyEntidad{\n    }\n\n    function getMetricas() external view onlyEntidad returns(uint _totalRes, uint _sumaVal, uint _totalUltRes){\n        _totalRes = totalRes ;\n        _sumaVal = sumaVal ;\n        _totalUltRes = getTotalUltRes() ;\n    }\n\n    function getPromedioVal() external view returns(uint _sumaVal, uint _totalRes){\n        _sumaVal = sumaVal ;\n        _totalRes = totalRes ;\n    }\n\n    function getResenias() external view onlyEntidad returns(Resenia[] memory resList){\n        resList = resenias ;\n    }\n\n    function getTotalUltRes() private view returns(uint _totalUltRes){\n        uint totalUltRes = 0 ;\n        for(uint i = 0; i<resenias.length; i++){\n            if(menos6Meses(resenias[i].fecha)) totalUltRes++ ;\n        }\n        _totalUltRes = totalUltRes ;\n    }\n\n    function enPlazo(address dirUsr) private view returns(bool _enPlazo){\n        _enPlazo = true ;\n        uint index = resXUsr[dirUsr] ;\n        if(resenias.length > 0 && index != 0){\n            uint ultima = resenias[index-1].fecha ;\n            _enPlazo = !menos6Meses(ultima) ;  \n        }\n    }\n \n    function menos6Meses(uint fecha) private view returns(bool _menos6Meses) {\n        _menos6Meses = (block.timestamp - fecha) <  6 * 30 days ; \n    }\n\n    function getContractBalance() public view onlyEntidad returns(uint balance){\n    balance = address(this).balance;\n    }\n}",
  "sourcePath": "/Users/alvarojimenez/Desktop/Master/ProyectoEthereum/dev/reseg_final/contracts/entidad.sol",
  "compiler": {
    "name": "solc",
    "version": "0.8.17+commit.8df45f5f.Emscripten.clang"
  },
  "schemaVersion": "3.4.11",
  "updatedAt": "2023-04-13T18:32:37.767Z",
  "devdoc": {
    "kind": "dev",
    "methods": {},
    "version": 1
  },
  "userdoc": {
    "kind": "user",
    "methods": {},
    "version": 1
  }
}