{
  "contractName": "Entidad",
  "abi": [
    {
      "inputs": [
        {
          "internalType": "address",
          "name": "_wallEntidad",
          "type": "address"
        },
        {
          "internalType": "string",
          "name": "_nombre",
          "type": "string"
        }
      ],
      "stateMutability": "nonpayable",
      "type": "constructor"
    },
    {
      "stateMutability": "payable",
      "type": "fallback"
    },
    {
      "stateMutability": "payable",
      "type": "receive"
    },
    {
      "inputs": [
        {
          "internalType": "uint256",
          "name": "_val",
          "type": "uint256"
        },
        {
          "internalType": "string",
          "name": "_titulo",
          "type": "string"
        },
        {
          "internalType": "string",
          "name": "_cuerpo",
          "type": "string"
        }
      ],
      "name": "valorar",
      "outputs": [],
      "stateMutability": "payable",
      "type": "function"
    },
    {
      "inputs": [],
      "name": "recargarSaldo",
      "outputs": [],
      "stateMutability": "payable",
      "type": "function"
    },
    {
      "inputs": [
        {
          "internalType": "uint256",
          "name": "idRes",
          "type": "uint256"
        }
      ],
      "name": "getRes",
      "outputs": [
        {
          "internalType": "string",
          "name": "autor",
          "type": "string"
        },
        {
          "internalType": "uint256",
          "name": "fecha",
          "type": "uint256"
        },
        {
          "internalType": "uint256",
          "name": "valoracion",
          "type": "uint256"
        },
        {
          "internalType": "string",
          "name": "titulo",
          "type": "string"
        },
        {
          "internalType": "string",
          "name": "cuerpo",
          "type": "string"
        }
      ],
      "stateMutability": "view",
      "type": "function"
    },
    {
      "inputs": [],
      "name": "getMetricas",
      "outputs": [
        {
          "internalType": "uint256",
          "name": "_totalRes",
          "type": "uint256"
        },
        {
          "internalType": "uint256",
          "name": "_sumaVal",
          "type": "uint256"
        },
        {
          "internalType": "uint256",
          "name": "_totalUltRes",
          "type": "uint256"
        }
      ],
      "stateMutability": "view",
      "type": "function"
    },
    {
      "inputs": [],
      "name": "getPromedioVal",
      "outputs": [
        {
          "internalType": "uint256",
          "name": "_sumaVal",
          "type": "uint256"
        },
        {
          "internalType": "uint256",
          "name": "_totalRes",
          "type": "uint256"
        }
      ],
      "stateMutability": "view",
      "type": "function"
    },
    {
      "inputs": [],
      "name": "getResenias",
      "outputs": [
        {
          "components": [
            {
              "internalType": "string",
              "name": "autor",
              "type": "string"
            },
            {
              "internalType": "uint256",
              "name": "fecha",
              "type": "uint256"
            },
            {
              "internalType": "uint256",
              "name": "valoracion",
              "type": "uint256"
            },
            {
              "internalType": "string",
              "name": "titulo",
              "type": "string"
            },
            {
              "internalType": "string",
              "name": "cuerpo",
              "type": "string"
            }
          ],
          "internalType": "struct Entidad.Resenia[]",
          "name": "resList",
          "type": "tuple[]"
        }
      ],
      "stateMutability": "view",
      "type": "function"
    },
    {
      "inputs": [],
      "name": "getContractBalance",
      "outputs": [
        {
          "internalType": "uint256",
          "name": "balance",
          "type": "uint256"
        }
      ],
      "stateMutability": "view",
      "type": "function"
    }
  ],
  "bytecode": "0x60a06040526129cc6080908152503480156200001a57600080fd5b5060405162002133380380620021338339818101604052810190620000409190620002d3565b336000806101000a81548173ffffffffffffffffffffffffffffffffffffffff021916908373ffffffffffffffffffffffffffffffffffffffff160217905550806002908162000091919062000584565b5081600160006101000a81548173ffffffffffffffffffffffffffffffffffffffff021916908373ffffffffffffffffffffffffffffffffffffffff16021790555050506200066b565b6000604051905090565b600080fd5b600080fd5b600073ffffffffffffffffffffffffffffffffffffffff82169050919050565b60006200011c82620000ef565b9050919050565b6200012e816200010f565b81146200013a57600080fd5b50565b6000815190506200014e8162000123565b92915050565b600080fd5b600080fd5b6000601f19601f8301169050919050565b7f4e487b7100000000000000000000000000000000000000000000000000000000600052604160045260246000fd5b620001a9826200015e565b810181811067ffffffffffffffff82111715620001cb57620001ca6200016f565b5b80604052505050565b6000620001e0620000db565b9050620001ee82826200019e565b919050565b600067ffffffffffffffff8211156200021157620002106200016f565b5b6200021c826200015e565b9050602081019050919050565b60005b83811015620002495780820151818401526020810190506200022c565b60008484015250505050565b60006200026c6200026684620001f3565b620001d4565b9050828152602081018484840111156200028b576200028a62000159565b5b6200029884828562000229565b509392505050565b600082601f830112620002b857620002b762000154565b5b8151620002ca84826020860162000255565b91505092915050565b60008060408385031215620002ed57620002ec620000e5565b5b6000620002fd858286016200013d565b925050602083015167ffffffffffffffff811115620003215762000320620000ea565b5b6200032f85828601620002a0565b9150509250929050565b600081519050919050565b7f4e487b7100000000000000000000000000000000000000000000000000000000600052602260045260246000fd5b600060028204905060018216806200038c57607f821691505b602082108103620003a257620003a162000344565b5b50919050565b60008190508160005260206000209050919050565b60006020601f8301049050919050565b600082821b905092915050565b6000600883026200040c7fffffffffffffffffffffffffffffffffffffffffffffffffffffffffffffffff82620003cd565b620004188683620003cd565b95508019841693508086168417925050509392505050565b6000819050919050565b6000819050919050565b6000620004656200045f620004598462000430565b6200043a565b62000430565b9050919050565b6000819050919050565b620004818362000444565b6200049962000490826200046c565b848454620003da565b825550505050565b600090565b620004b0620004a1565b620004bd81848462000476565b505050565b5b81811015620004e557620004d9600082620004a6565b600181019050620004c3565b5050565b601f8211156200053457620004fe81620003a8565b6200050984620003bd565b8101602085101562000519578190505b620005316200052885620003bd565b830182620004c2565b50505b505050565b600082821c905092915050565b6000620005596000198460080262000539565b1980831691505092915050565b600062000574838362000546565b9150826002028217905092915050565b6200058f8262000339565b67ffffffffffffffff811115620005ab57620005aa6200016f565b5b620005b7825462000373565b620005c4828285620004e9565b600060209050601f831160018114620005fc5760008415620005e7578287015190505b620005f3858262000566565b86555062000663565b601f1984166200060c86620003a8565b60005b8281101562000636578489015182556001820191506020850194506020810190506200060f565b8683101562000656578489015162000652601f89168262000546565b8355505b6001600288020188555050505b505050505050565b608051611aac6200068760003960006108e10152611aac6000f3fe6080604052600436106100745760003560e01c80636f9fb98a1161004e5780636f9fb98a146100df5780638e11d1551461010a5780639039ae2814610136578063f8433d84146101525761007b565b80632241eb661461007d5780633fff25a4146100a85780636be1cd1e146100b25761007b565b3661007b57005b005b34801561008957600080fd5b50610092610193565b60405161009f9190610ed9565b60405180910390f35b6100b0610495565b005b3480156100be57600080fd5b506100c7610570565b6040516100d693929190610f0a565b60405180910390f35b3480156100eb57600080fd5b506100f461058e565b6040516101019190610f41565b60405180910390f35b34801561011657600080fd5b5061011f610596565b60405161012d929190610f5c565b60405180910390f35b610150600480360381019061014b91906110fa565b6105a7565b005b34801561015e57600080fd5b5061017960048036038101906101749190611185565b610974565b60405161018a9594939291906111fc565b60405180910390f35b606060008054906101000a900473ffffffffffffffffffffffffffffffffffffffff1673ffffffffffffffffffffffffffffffffffffffff1663e7dd1ce6336040518263ffffffff1660e01b81526004016101ee91906112a5565b602060405180830381865afa15801561020b573d6000803e3d6000fd5b505050506040513d601f19601f8201168201806040525081019061022f91906112f8565b61026e576040517f08c379a0000000000000000000000000000000000000000000000000000000008152600401610265906113bd565b60405180910390fd5b6003805480602002602001604051908101604052809291908181526020016000905b8282101561048c57838290600052602060002090600502016040518060a00160405290816000820180546102c39061140c565b80601f01602080910402602001604051908101604052809291908181526020018280546102ef9061140c565b801561033c5780601f106103115761010080835404028352916020019161033c565b820191906000526020600020905b81548152906001019060200180831161031f57829003601f168201915b5050505050815260200160018201548152602001600282015481526020016003820180546103699061140c565b80601f01602080910402602001604051908101604052809291908181526020018280546103959061140c565b80156103e25780601f106103b7576101008083540402835291602001916103e2565b820191906000526020600020905b8154815290600101906020018083116103c557829003601f168201915b505050505081526020016004820180546103fb9061140c565b80601f01602080910402602001604051908101604052809291908181526020018280546104279061140c565b80156104745780601f1061044957610100808354040283529160200191610474565b820191906000526020600020905b81548152906001019060200180831161045757829003601f168201915b50505050508152505081526020019060010190610290565b50505050905090565b60008054906101000a900473ffffffffffffffffffffffffffffffffffffffff1673ffffffffffffffffffffffffffffffffffffffff1663e7dd1ce6336040518263ffffffff1660e01b81526004016104ee91906112a5565b602060405180830381865afa15801561050b573d6000803e3d6000fd5b505050506040513d601f19601f8201168201806040525081019061052f91906112f8565b61056e576040517f08c379a0000000000000000000000000000000000000000000000000000000008152600401610565906113bd565b60405180910390fd5b565b600080600060055492506006549150610587610ba4565b9050909192565b600047905090565b600080600654915060055490509091565b60005a905060008060009054906101000a900473ffffffffffffffffffffffffffffffffffffffff1673ffffffffffffffffffffffffffffffffffffffff166310fe472b336040518263ffffffff1660e01b815260040161060891906112a5565b600060405180830381865afa158015610625573d6000803e3d6000fd5b505050506040513d6000823e3d601f19601f8201168201806040525081019061064e91906114ad565b905060405160200161065f90611527565b6040516020818303038152906040528051906020012081604051602001610686919061156d565b60405160208183030381529060405280519060200120036106dc576040517f08c379a00000000000000000000000000000000000000000000000000000000081526004016106d3906115f6565b60405180910390fd5b6106e533610c18565b610724576040517f08c379a000000000000000000000000000000000000000000000000000000000815260040161071b90611688565b60405180910390fd5b60036040518060a00160405280838152602001428152602001878152602001868152602001858152509080600181540180825580915050600190039060005260206000209060050201600090919091909150600082015181600001908161078b9190611854565b50602082015181600101556040820151816002015560608201518160030190816107b59190611854565b5060808201518160040190816107cb9190611854565b50505060016005546107dd9190611955565b600460003373ffffffffffffffffffffffffffffffffffffffff1673ffffffffffffffffffffffffffffffffffffffff1681526020019081526020016000208190555060008054906101000a900473ffffffffffffffffffffffffffffffffffffffff1673ffffffffffffffffffffffffffffffffffffffff1663a8ce79b26040518163ffffffff1660e01b8152600401600060405180830381600087803b15801561088857600080fd5b505af115801561089c573d6000803e3d6000fd5b50505050600560008154809291906108b390611989565b9190505550846006546108c69190611955565b6006819055505060005a826108db91906119d1565b905060007f00000000000000000000000000000000000000000000000000000000000000003a6152088461090f9190611955565b6109199190611a05565b6109239190611955565b90503373ffffffffffffffffffffffffffffffffffffffff166108fc829081150290604051600060405180830381858888f1935050505015801561096b573d6000803e3d6000fd5b50505050505050565b606060008060608060006003878154811061099257610991611a47565b5b90600052602060002090600502016040518060a00160405290816000820180546109bb9061140c565b80601f01602080910402602001604051908101604052809291908181526020018280546109e79061140c565b8015610a345780601f10610a0957610100808354040283529160200191610a34565b820191906000526020600020905b815481529060010190602001808311610a1757829003601f168201915b505050505081526020016001820154815260200160028201548152602001600382018054610a619061140c565b80601f0160208091040260200160405190810160405280929190818152602001828054610a8d9061140c565b8015610ada5780601f10610aaf57610100808354040283529160200191610ada565b820191906000526020600020905b815481529060010190602001808311610abd57829003601f168201915b50505050508152602001600482018054610af39061140c565b80601f0160208091040260200160405190810160405280929190818152602001828054610b1f9061140c565b8015610b6c5780601f10610b4157610100808354040283529160200191610b6c565b820191906000526020600020905b815481529060010190602001808311610b4f57829003601f168201915b505050505081525050905080600001519550806020015194508060400151935080606001519250806080015191505091939590929450565b6000806000905060005b600380549050811015610c1057610be960038281548110610bd257610bd1611a47565b5b906000526020600020906005020160010154610cd0565b15610bfd578180610bf990611989565b9250505b8080610c0890611989565b915050610bae565b508091505090565b6000600190506000600460008473ffffffffffffffffffffffffffffffffffffffff1673ffffffffffffffffffffffffffffffffffffffff1681526020019081526020016000205490506000600380549050118015610c78575060008114155b15610cca5760006003600183610c8e91906119d1565b81548110610c9f57610c9e611a47565b5b90600052602060002090600502016001015490506000811115610cc857610cc581610cd0565b92505b505b50919050565b600062ed4e008242610ce291906119d1565b119050919050565b600081519050919050565b600082825260208201905092915050565b6000819050602082019050919050565b600081519050919050565b600082825260208201905092915050565b60005b83811015610d50578082015181840152602081019050610d35565b60008484015250505050565b6000601f19601f8301169050919050565b6000610d7882610d16565b610d828185610d21565b9350610d92818560208601610d32565b610d9b81610d5c565b840191505092915050565b6000819050919050565b610db981610da6565b82525050565b600060a0830160008301518482036000860152610ddc8282610d6d565b9150506020830151610df16020860182610db0565b506040830151610e046040860182610db0565b5060608301518482036060860152610e1c8282610d6d565b91505060808301518482036080860152610e368282610d6d565b9150508091505092915050565b6000610e4f8383610dbf565b905092915050565b6000602082019050919050565b6000610e6f82610cea565b610e798185610cf5565b935083602082028501610e8b85610d06565b8060005b85811015610ec75784840389528151610ea88582610e43565b9450610eb383610e57565b925060208a01995050600181019050610e8f565b50829750879550505050505092915050565b60006020820190508181036000830152610ef38184610e64565b905092915050565b610f0481610da6565b82525050565b6000606082019050610f1f6000830186610efb565b610f2c6020830185610efb565b610f396040830184610efb565b949350505050565b6000602082019050610f566000830184610efb565b92915050565b6000604082019050610f716000830185610efb565b610f7e6020830184610efb565b9392505050565b6000604051905090565b600080fd5b600080fd5b610fa281610da6565b8114610fad57600080fd5b50565b600081359050610fbf81610f99565b92915050565b600080fd5b600080fd5b7f4e487b7100000000000000000000000000000000000000000000000000000000600052604160045260246000fd5b61100782610d5c565b810181811067ffffffffffffffff8211171561102657611025610fcf565b5b80604052505050565b6000611039610f85565b90506110458282610ffe565b919050565b600067ffffffffffffffff82111561106557611064610fcf565b5b61106e82610d5c565b9050602081019050919050565b82818337600083830152505050565b600061109d6110988461104a565b61102f565b9050828152602081018484840111156110b9576110b8610fca565b5b6110c484828561107b565b509392505050565b600082601f8301126110e1576110e0610fc5565b5b81356110f184826020860161108a565b91505092915050565b60008060006060848603121561111357611112610f8f565b5b600061112186828701610fb0565b935050602084013567ffffffffffffffff81111561114257611141610f94565b5b61114e868287016110cc565b925050604084013567ffffffffffffffff81111561116f5761116e610f94565b5b61117b868287016110cc565b9150509250925092565b60006020828403121561119b5761119a610f8f565b5b60006111a984828501610fb0565b91505092915050565b600082825260208201905092915050565b60006111ce82610d16565b6111d881856111b2565b93506111e8818560208601610d32565b6111f181610d5c565b840191505092915050565b600060a082019050818103600083015261121681886111c3565b90506112256020830187610efb565b6112326040830186610efb565b818103606083015261124481856111c3565b9050818103608083015261125881846111c3565b90509695505050505050565b600073ffffffffffffffffffffffffffffffffffffffff82169050919050565b600061128f82611264565b9050919050565b61129f81611284565b82525050565b60006020820190506112ba6000830184611296565b92915050565b60008115159050919050565b6112d5816112c0565b81146112e057600080fd5b50565b6000815190506112f2816112cc565b92915050565b60006020828403121561130e5761130d610f8f565b5b600061131c848285016112e3565b91505092915050565b7f4f7065726163696f6e207065726d6974696461206578636c75736976616d656e60008201527f74652061206c6120656e74696461642070726f70696574617269612064656c2060208201527f636f6e747261746f000000000000000000000000000000000000000000000000604082015250565b60006113a76048836111b2565b91506113b282611325565b606082019050919050565b600060208201905081810360008301526113d68161139a565b9050919050565b7f4e487b7100000000000000000000000000000000000000000000000000000000600052602260045260246000fd5b6000600282049050600182168061142457607f821691505b602082108103611437576114366113dd565b5b50919050565b600061145061144b8461104a565b61102f565b90508281526020810184848401111561146c5761146b610fca565b5b611477848285610d32565b509392505050565b600082601f83011261149457611493610fc5565b5b81516114a484826020860161143d565b91505092915050565b6000602082840312156114c3576114c2610f8f565b5b600082015167ffffffffffffffff8111156114e1576114e0610f94565b5b6114ed8482850161147f565b91505092915050565b600081905092915050565b50565b60006115116000836114f6565b915061151c82611501565b600082019050919050565b600061153282611504565b9150819050919050565b600061154782610d16565b61155181856114f6565b9350611561818560208601610d32565b80840191505092915050565b6000611579828461153c565b915081905092915050565b7f4e6f206573207573756172696f207265676973747261646f207061726120766160008201527f6c6f726172000000000000000000000000000000000000000000000000000000602082015250565b60006115e06025836111b2565b91506115eb82611584565b604082019050919050565b6000602082019050818103600083015261160f816115d3565b9050919050565b7f48612076616c6f7261646f206573746120656e74696461642068616365206d6560008201527f6e6f732064652036206d65736573000000000000000000000000000000000000602082015250565b6000611672602e836111b2565b915061167d82611616565b604082019050919050565b600060208201905081810360008301526116a181611665565b9050919050565b60008190508160005260206000209050919050565b60006020601f8301049050919050565b600082821b905092915050565b60006008830261170a7fffffffffffffffffffffffffffffffffffffffffffffffffffffffffffffffff826116cd565b61171486836116cd565b95508019841693508086168417925050509392505050565b6000819050919050565b600061175161174c61174784610da6565b61172c565b610da6565b9050919050565b6000819050919050565b61176b83611736565b61177f61177782611758565b8484546116da565b825550505050565b600090565b611794611787565b61179f818484611762565b505050565b5b818110156117c3576117b860008261178c565b6001810190506117a5565b5050565b601f821115611808576117d9816116a8565b6117e2846116bd565b810160208510156117f1578190505b6118056117fd856116bd565b8301826117a4565b50505b505050565b600082821c905092915050565b600061182b6000198460080261180d565b1980831691505092915050565b6000611844838361181a565b9150826002028217905092915050565b61185d82610d16565b67ffffffffffffffff81111561187657611875610fcf565b5b611880825461140c565b61188b8282856117c7565b600060209050601f8311600181146118be57600084156118ac578287015190505b6118b68582611838565b86555061191e565b601f1984166118cc866116a8565b60005b828110156118f4578489015182556001820191506020850194506020810190506118cf565b86831015611911578489015161190d601f89168261181a565b8355505b6001600288020188555050505b505050505050565b7f4e487b7100000000000000000000000000000000000000000000000000000000600052601160045260246000fd5b600061196082610da6565b915061196b83610da6565b925082820190508082111561198357611982611926565b5b92915050565b600061199482610da6565b91507fffffffffffffffffffffffffffffffffffffffffffffffffffffffffffffffff82036119c6576119c5611926565b5b600182019050919050565b60006119dc82610da6565b91506119e783610da6565b92508282039050818111156119ff576119fe611926565b5b92915050565b6000611a1082610da6565b9150611a1b83610da6565b9250828202611a2981610da6565b91508282048414831517611a4057611a3f611926565b5b5092915050565b7f4e487b7100000000000000000000000000000000000000000000000000000000600052603260045260246000fdfea26469706673582212206cc4760e1eb1cdeec4f08d62cf59942f078fedc12a85d560139d6d1512fde96364736f6c63430008110033",
  "immutableReferences": {
    "875": [
      {
        "length": 32,
        "start": 2273
      }
    ]
  },
  "source": "// SPDX-License-Identifier: UNLICENSED\npragma solidity ^0.8.17;\n\nimport './core.sol' ;\nimport './freeForUser.sol' ;\n\ncontract Entidad is FreeForUser{  \n    \n    struct Resenia {\n        string autor ;\n        uint fecha ;\n        uint valoracion ;\n        string titulo ;\n        string cuerpo ;\n    }\n\n    Core coreContract ;\n    address wallEntidad ;\n    string marca ;\n    Resenia[] resenias ;\n    mapping(address => uint) resXUsr ;\n\n    uint totalRes ;\n    uint sumaVal ;\n\n    modifier onlyEntidad(){\n        require(coreContract.esEntidadContr(msg.sender), \"Operacion permitida exclusivamente a la entidad propietaria del contrato\") ;\n        _ ;\n    }\n\n    constructor(address _wallEntidad, string memory _nombre) {\n        coreContract = Core(msg.sender) ;\n        marca = _nombre ;\n        wallEntidad = _wallEntidad ;\n    }\n\n    receive() external payable {\n    }\n\n    fallback() external payable {\n    }\n\n    function valorar(uint _val, string memory _titulo, string memory _cuerpo) external payable devolverFee{\n        string memory usrName = coreContract.getUserNameByAddress(msg.sender) ;\n        require(keccak256(abi.encodePacked(usrName)) != keccak256(abi.encodePacked(\"\")), \"No es usuario registrado para valorar\") ;\n        require(enPlazo(msg.sender), \"Ha valorado esta entidad hace menos de 6 meses\") ;\n        resenias.push(Resenia(usrName, block.timestamp, _val, _titulo, _cuerpo));\n        resXUsr[msg.sender] = totalRes + 1 ; //No guardar en index = 0\n        coreContract.incRes() ;\n        totalRes++ ;\n        sumaVal = sumaVal + _val ;\n    }\n\n    function recargarSaldo() external payable onlyEntidad{\n    }\n\n    function getRes(uint idRes) external view returns(string memory autor, uint fecha, uint valoracion, string memory titulo, string memory cuerpo){\n        Resenia memory res =  resenias[idRes] ;\n        autor = res.autor ;\n        fecha = res.fecha ;\n        valoracion = res.valoracion ;\n        titulo = res.titulo ;\n        cuerpo = res.cuerpo ;\n    }\n\n    function getMetricas() external view returns(uint _totalRes, uint _sumaVal, uint _totalUltRes){\n        _totalRes = totalRes ;\n        _sumaVal = sumaVal ;\n        _totalUltRes = getTotalUltRes() ;\n    }\n\n    function getPromedioVal() external view returns(uint _sumaVal, uint _totalRes){\n        _sumaVal = sumaVal ;\n        _totalRes = totalRes ;\n    }\n\n    function getResenias() external view onlyEntidad returns(Resenia[] memory resList){\n        resList = resenias ;\n    }\n\n    function getTotalUltRes() private view returns(uint _totalUltRes){\n        uint totalUltRes = 0 ;\n        for(uint i = 0; i<resenias.length; i++){\n            if(menos6Meses(resenias[i].fecha)) totalUltRes++ ;\n        }\n        _totalUltRes = totalUltRes ;\n    }\n\n    function enPlazo(address dirUsr) private view returns(bool _enPlazo){\n        _enPlazo = true ;\n        uint index = resXUsr[dirUsr] ;\n        if(resenias.length > 0 && index != 0){\n            uint ultima = resenias[index-1].fecha ;\n            if(ultima > 0) _enPlazo = menos6Meses(ultima) ;  \n        }\n    }\n \n    function menos6Meses(uint fecha) private view returns(bool _menos6Meses) {\n        _menos6Meses = (block.timestamp - fecha) >  6 * 30 * 24 * 60 * 60 ; //6 meses en segs\n    }\n\n    function getContractBalance() public view returns(uint balance){\n    balance = address(this).balance;\n    }\n}",
  "sourcePath": "/Users/alvarojimenez/Desktop/Master/ProyectoEthereum/dev/reseg_final/contracts/entidad.sol",
  "compiler": {
    "name": "solc",
    "version": "0.8.17+commit.8df45f5f.Emscripten.clang"
  },
  "schemaVersion": "3.4.11",
  "updatedAt": "2023-03-28T17:53:15.780Z",
  "devdoc": {
    "kind": "dev",
    "methods": {},
    "version": 1
  },
  "userdoc": {
    "kind": "user",
    "methods": {},
    "version": 1
  }
}